{
	"contracts/xzq_7_vote2.sol": {
		"Voteing": {
			"abi": [
				{
					"inputs": [
						{
							"internalType": "string",
							"name": "key",
							"type": "string"
						}
					],
					"name": "vote",
					"outputs": [],
					"stateMutability": "nonpayable",
					"type": "function"
				},
				{
					"inputs": [
						{
							"internalType": "address",
							"name": "",
							"type": "address"
						}
					],
					"name": "voter",
					"outputs": [
						{
							"internalType": "bool",
							"name": "",
							"type": "bool"
						}
					],
					"stateMutability": "view",
					"type": "function"
				},
				{
					"inputs": [
						{
							"internalType": "string",
							"name": "",
							"type": "string"
						}
					],
					"name": "votes",
					"outputs": [
						{
							"internalType": "uint256",
							"name": "",
							"type": "uint256"
						}
					],
					"stateMutability": "view",
					"type": "function"
				}
			],
			"devdoc": {
				"kind": "dev",
				"methods": {},
				"version": 1
			},
			"evm": {
				"assembly": "    /* \"contracts/xzq_7_vote2.sol\":63:340  contract Voteing{... */\n  mstore(0x40, 0x80)\n  callvalue\n  dup1\n  iszero\n  tag_1\n  jumpi\n  revert(0x00, 0x00)\ntag_1:\n  pop\n  dataSize(sub_0)\n  dup1\n  dataOffset(sub_0)\n  0x00\n  codecopy\n  0x00\n  return\nstop\n\nsub_0: assembly {\n        /* \"contracts/xzq_7_vote2.sol\":63:340  contract Voteing{... */\n      mstore(0x40, 0x80)\n      callvalue\n      dup1\n      iszero\n      tag_1\n      jumpi\n      revert(0x00, 0x00)\n    tag_1:\n      pop\n      jumpi(tag_2, lt(calldatasize, 0x04))\n      shr(0xe0, calldataload(0x00))\n      dup1\n      0xaf0dbe54\n      eq\n      tag_3\n      jumpi\n      dup1\n      0xb99ef1fa\n      eq\n      tag_4\n      jumpi\n      dup1\n      0xfc36e15b\n      eq\n      tag_5\n      jumpi\n    tag_2:\n      revert(0x00, 0x00)\n        /* \"contracts/xzq_7_vote2.sol\":133:169  mapping (address=>bool) public voter */\n    tag_3:\n      tag_6\n      0x04\n      dup1\n      calldatasize\n      sub\n      dup2\n      add\n      swap1\n      tag_7\n      swap2\n      swap1\n      tag_8\n      jump\t// in\n    tag_7:\n      tag_9\n      jump\t// in\n    tag_6:\n      mload(0x40)\n      tag_10\n      swap2\n      swap1\n      tag_11\n      jump\t// in\n    tag_10:\n      mload(0x40)\n      dup1\n      swap2\n      sub\n      swap1\n      return\n        /* \"contracts/xzq_7_vote2.sol\":86:124  mapping (string=>uint256) public votes */\n    tag_4:\n      tag_12\n      0x04\n      dup1\n      calldatasize\n      sub\n      dup2\n      add\n      swap1\n      tag_13\n      swap2\n      swap1\n      tag_14\n      jump\t// in\n    tag_13:\n      tag_15\n      jump\t// in\n    tag_12:\n      mload(0x40)\n      tag_16\n      swap2\n      swap1\n      tag_17\n      jump\t// in\n    tag_16:\n      mload(0x40)\n      dup1\n      swap2\n      sub\n      swap1\n      return\n        /* \"contracts/xzq_7_vote2.sol\":178:337  function vote(string memory key) public {... */\n    tag_5:\n      tag_18\n      0x04\n      dup1\n      calldatasize\n      sub\n      dup2\n      add\n      swap1\n      tag_19\n      swap2\n      swap1\n      tag_14\n      jump\t// in\n    tag_19:\n      tag_20\n      jump\t// in\n    tag_18:\n      stop\n        /* \"contracts/xzq_7_vote2.sol\":133:169  mapping (address=>bool) public voter */\n    tag_9:\n      mstore(0x20, 0x01)\n      dup1\n      0x00\n      mstore\n      keccak256(0x00, 0x40)\n      0x00\n      swap2\n      pop\n      sload\n      swap1\n      0x0100\n      exp\n      swap1\n      div\n      0xff\n      and\n      dup2\n      jump\t// out\n        /* \"contracts/xzq_7_vote2.sol\":86:124  mapping (string=>uint256) public votes */\n    tag_15:\n      0x00\n      dup2\n      dup1\n      mload\n      0x20\n      dup2\n      add\n      dup3\n      add\n      dup1\n      mload\n      dup5\n      dup3\n      mstore\n      0x20\n      dup4\n      add\n      0x20\n      dup6\n      add\n      keccak256\n      dup2\n      dup4\n      mstore\n      dup1\n      swap6\n      pop\n      pop\n      pop\n      pop\n      pop\n      pop\n      0x00\n      swap2\n      pop\n      swap1\n      pop\n      sload\n      dup2\n      jump\t// out\n        /* \"contracts/xzq_7_vote2.sol\":178:337  function vote(string memory key) public {... */\n    tag_20:\n        /* \"contracts/xzq_7_vote2.sol\":238:243  voter */\n      0x01\n        /* \"contracts/xzq_7_vote2.sol\":238:255  voter[msg.sender] */\n      0x00\n        /* \"contracts/xzq_7_vote2.sol\":244:254  msg.sender */\n      caller\n        /* \"contracts/xzq_7_vote2.sol\":238:255  voter[msg.sender] */\n      0xffffffffffffffffffffffffffffffffffffffff\n      and\n      0xffffffffffffffffffffffffffffffffffffffff\n      and\n      dup2\n      mstore\n      0x20\n      add\n      swap1\n      dup2\n      mstore\n      0x20\n      add\n      0x00\n      keccak256\n      0x00\n      swap1\n      sload\n      swap1\n      0x0100\n      exp\n      swap1\n      div\n      0xff\n      and\n        /* \"contracts/xzq_7_vote2.sol\":237:255  !voter[msg.sender] */\n      iszero\n        /* \"contracts/xzq_7_vote2.sol\":229:272  require(!voter[msg.sender],\"Already voted\") */\n      tag_22\n      jumpi\n      mload(0x40)\n      0x08c379a000000000000000000000000000000000000000000000000000000000\n      dup2\n      mstore\n      0x04\n      add\n      tag_23\n      swap1\n      tag_24\n      jump\t// in\n    tag_23:\n      mload(0x40)\n      dup1\n      swap2\n      sub\n      swap1\n      revert\n    tag_22:\n        /* \"contracts/xzq_7_vote2.sol\":295:296  1 */\n      0x01\n        /* \"contracts/xzq_7_vote2.sol\":283:288  votes */\n      0x00\n        /* \"contracts/xzq_7_vote2.sol\":289:292  key */\n      dup3\n        /* \"contracts/xzq_7_vote2.sol\":283:293  votes[key] */\n      mload(0x40)\n      tag_25\n      swap2\n      swap1\n      tag_26\n      jump\t// in\n    tag_25:\n      swap1\n      dup2\n      mstore\n      0x20\n      add\n      mload(0x40)\n      dup1\n      swap2\n      sub\n      swap1\n      keccak256\n      0x00\n        /* \"contracts/xzq_7_vote2.sol\":283:296  votes[key]+=1 */\n      dup3\n      dup3\n      sload\n      tag_27\n      swap2\n      swap1\n      tag_28\n      jump\t// in\n    tag_27:\n      swap3\n      pop\n      pop\n      dup2\n      swap1\n      sstore\n      pop\n        /* \"contracts/xzq_7_vote2.sol\":325:329  true */\n      0x01\n        /* \"contracts/xzq_7_vote2.sol\":307:312  voter */\n      dup1\n        /* \"contracts/xzq_7_vote2.sol\":307:324  voter[msg.sender] */\n      0x00\n        /* \"contracts/xzq_7_vote2.sol\":313:323  msg.sender */\n      caller\n        /* \"contracts/xzq_7_vote2.sol\":307:324  voter[msg.sender] */\n      0xffffffffffffffffffffffffffffffffffffffff\n      and\n      0xffffffffffffffffffffffffffffffffffffffff\n      and\n      dup2\n      mstore\n      0x20\n      add\n      swap1\n      dup2\n      mstore\n      0x20\n      add\n      0x00\n      keccak256\n      0x00\n        /* \"contracts/xzq_7_vote2.sol\":307:329  voter[msg.sender]=true */\n      0x0100\n      exp\n      dup2\n      sload\n      dup2\n      0xff\n      mul\n      not\n      and\n      swap1\n      dup4\n      iszero\n      iszero\n      mul\n      or\n      swap1\n      sstore\n      pop\n        /* \"contracts/xzq_7_vote2.sol\":178:337  function vote(string memory key) public {... */\n      pop\n      jump\t// out\n        /* \"#utility.yul\":7:82   */\n    tag_29:\n        /* \"#utility.yul\":40:46   */\n      0x00\n        /* \"#utility.yul\":73:75   */\n      0x40\n        /* \"#utility.yul\":67:76   */\n      mload\n        /* \"#utility.yul\":57:76   */\n      swap1\n      pop\n        /* \"#utility.yul\":7:82   */\n      swap1\n      jump\t// out\n        /* \"#utility.yul\":88:205   */\n    tag_30:\n        /* \"#utility.yul\":197:198   */\n      0x00\n        /* \"#utility.yul\":194:195   */\n      0x00\n        /* \"#utility.yul\":187:199   */\n      revert\n        /* \"#utility.yul\":211:328   */\n    tag_31:\n        /* \"#utility.yul\":320:321   */\n      0x00\n        /* \"#utility.yul\":317:318   */\n      0x00\n        /* \"#utility.yul\":310:322   */\n      revert\n        /* \"#utility.yul\":334:460   */\n    tag_32:\n        /* \"#utility.yul\":371:378   */\n      0x00\n        /* \"#utility.yul\":411:453   */\n      0xffffffffffffffffffffffffffffffffffffffff\n        /* \"#utility.yul\":404:409   */\n      dup3\n        /* \"#utility.yul\":400:454   */\n      and\n        /* \"#utility.yul\":389:454   */\n      swap1\n      pop\n        /* \"#utility.yul\":334:460   */\n      swap2\n      swap1\n      pop\n      jump\t// out\n        /* \"#utility.yul\":466:562   */\n    tag_33:\n        /* \"#utility.yul\":503:510   */\n      0x00\n        /* \"#utility.yul\":532:556   */\n      tag_64\n        /* \"#utility.yul\":550:555   */\n      dup3\n        /* \"#utility.yul\":532:556   */\n      tag_32\n      jump\t// in\n    tag_64:\n        /* \"#utility.yul\":521:556   */\n      swap1\n      pop\n        /* \"#utility.yul\":466:562   */\n      swap2\n      swap1\n      pop\n      jump\t// out\n        /* \"#utility.yul\":568:690   */\n    tag_34:\n        /* \"#utility.yul\":641:665   */\n      tag_66\n        /* \"#utility.yul\":659:664   */\n      dup2\n        /* \"#utility.yul\":641:665   */\n      tag_33\n      jump\t// in\n    tag_66:\n        /* \"#utility.yul\":634:639   */\n      dup2\n        /* \"#utility.yul\":631:666   */\n      eq\n        /* \"#utility.yul\":621:684   */\n      tag_67\n      jumpi\n        /* \"#utility.yul\":680:681   */\n      0x00\n        /* \"#utility.yul\":677:678   */\n      0x00\n        /* \"#utility.yul\":670:682   */\n      revert\n        /* \"#utility.yul\":621:684   */\n    tag_67:\n        /* \"#utility.yul\":568:690   */\n      pop\n      jump\t// out\n        /* \"#utility.yul\":696:835   */\n    tag_35:\n        /* \"#utility.yul\":742:747   */\n      0x00\n        /* \"#utility.yul\":780:786   */\n      dup2\n        /* \"#utility.yul\":767:787   */\n      calldataload\n        /* \"#utility.yul\":758:787   */\n      swap1\n      pop\n        /* \"#utility.yul\":796:829   */\n      tag_69\n        /* \"#utility.yul\":823:828   */\n      dup2\n        /* \"#utility.yul\":796:829   */\n      tag_34\n      jump\t// in\n    tag_69:\n        /* \"#utility.yul\":696:835   */\n      swap3\n      swap2\n      pop\n      pop\n      jump\t// out\n        /* \"#utility.yul\":841:1170   */\n    tag_8:\n        /* \"#utility.yul\":900:906   */\n      0x00\n        /* \"#utility.yul\":949:951   */\n      0x20\n        /* \"#utility.yul\":937:946   */\n      dup3\n        /* \"#utility.yul\":928:935   */\n      dup5\n        /* \"#utility.yul\":924:947   */\n      sub\n        /* \"#utility.yul\":920:952   */\n      slt\n        /* \"#utility.yul\":917:1036   */\n      iszero\n      tag_71\n      jumpi\n        /* \"#utility.yul\":955:1034   */\n      tag_72\n      tag_30\n      jump\t// in\n    tag_72:\n        /* \"#utility.yul\":917:1036   */\n    tag_71:\n        /* \"#utility.yul\":1075:1076   */\n      0x00\n        /* \"#utility.yul\":1100:1153   */\n      tag_73\n        /* \"#utility.yul\":1145:1152   */\n      dup5\n        /* \"#utility.yul\":1136:1142   */\n      dup3\n        /* \"#utility.yul\":1125:1134   */\n      dup6\n        /* \"#utility.yul\":1121:1143   */\n      add\n        /* \"#utility.yul\":1100:1153   */\n      tag_35\n      jump\t// in\n    tag_73:\n        /* \"#utility.yul\":1090:1153   */\n      swap2\n      pop\n        /* \"#utility.yul\":1046:1163   */\n      pop\n        /* \"#utility.yul\":841:1170   */\n      swap3\n      swap2\n      pop\n      pop\n      jump\t// out\n        /* \"#utility.yul\":1176:1266   */\n    tag_36:\n        /* \"#utility.yul\":1210:1217   */\n      0x00\n        /* \"#utility.yul\":1253:1258   */\n      dup2\n        /* \"#utility.yul\":1246:1259   */\n      iszero\n        /* \"#utility.yul\":1239:1260   */\n      iszero\n        /* \"#utility.yul\":1228:1260   */\n      swap1\n      pop\n        /* \"#utility.yul\":1176:1266   */\n      swap2\n      swap1\n      pop\n      jump\t// out\n        /* \"#utility.yul\":1272:1381   */\n    tag_37:\n        /* \"#utility.yul\":1353:1374   */\n      tag_76\n        /* \"#utility.yul\":1368:1373   */\n      dup2\n        /* \"#utility.yul\":1353:1374   */\n      tag_36\n      jump\t// in\n    tag_76:\n        /* \"#utility.yul\":1348:1351   */\n      dup3\n        /* \"#utility.yul\":1341:1375   */\n      mstore\n        /* \"#utility.yul\":1272:1381   */\n      pop\n      pop\n      jump\t// out\n        /* \"#utility.yul\":1387:1597   */\n    tag_11:\n        /* \"#utility.yul\":1474:1478   */\n      0x00\n        /* \"#utility.yul\":1512:1514   */\n      0x20\n        /* \"#utility.yul\":1501:1510   */\n      dup3\n        /* \"#utility.yul\":1497:1515   */\n      add\n        /* \"#utility.yul\":1489:1515   */\n      swap1\n      pop\n        /* \"#utility.yul\":1525:1590   */\n      tag_78\n        /* \"#utility.yul\":1587:1588   */\n      0x00\n        /* \"#utility.yul\":1576:1585   */\n      dup4\n        /* \"#utility.yul\":1572:1589   */\n      add\n        /* \"#utility.yul\":1563:1569   */\n      dup5\n        /* \"#utility.yul\":1525:1590   */\n      tag_37\n      jump\t// in\n    tag_78:\n        /* \"#utility.yul\":1387:1597   */\n      swap3\n      swap2\n      pop\n      pop\n      jump\t// out\n        /* \"#utility.yul\":1603:1720   */\n    tag_38:\n        /* \"#utility.yul\":1712:1713   */\n      0x00\n        /* \"#utility.yul\":1709:1710   */\n      0x00\n        /* \"#utility.yul\":1702:1714   */\n      revert\n        /* \"#utility.yul\":1726:1843   */\n    tag_39:\n        /* \"#utility.yul\":1835:1836   */\n      0x00\n        /* \"#utility.yul\":1832:1833   */\n      0x00\n        /* \"#utility.yul\":1825:1837   */\n      revert\n        /* \"#utility.yul\":1849:1951   */\n    tag_40:\n        /* \"#utility.yul\":1890:1896   */\n      0x00\n        /* \"#utility.yul\":1941:1943   */\n      0x1f\n        /* \"#utility.yul\":1937:1944   */\n      not\n        /* \"#utility.yul\":1932:1934   */\n      0x1f\n        /* \"#utility.yul\":1925:1930   */\n      dup4\n        /* \"#utility.yul\":1921:1935   */\n      add\n        /* \"#utility.yul\":1917:1945   */\n      and\n        /* \"#utility.yul\":1907:1945   */\n      swap1\n      pop\n        /* \"#utility.yul\":1849:1951   */\n      swap2\n      swap1\n      pop\n      jump\t// out\n        /* \"#utility.yul\":1957:2137   */\n    tag_41:\n        /* \"#utility.yul\":2005:2082   */\n      0x4e487b7100000000000000000000000000000000000000000000000000000000\n        /* \"#utility.yul\":2002:2003   */\n      0x00\n        /* \"#utility.yul\":1995:2083   */\n      mstore\n        /* \"#utility.yul\":2102:2106   */\n      0x41\n        /* \"#utility.yul\":2099:2100   */\n      0x04\n        /* \"#utility.yul\":2092:2107   */\n      mstore\n        /* \"#utility.yul\":2126:2130   */\n      0x24\n        /* \"#utility.yul\":2123:2124   */\n      0x00\n        /* \"#utility.yul\":2116:2131   */\n      revert\n        /* \"#utility.yul\":2143:2424   */\n    tag_42:\n        /* \"#utility.yul\":2226:2253   */\n      tag_84\n        /* \"#utility.yul\":2248:2252   */\n      dup3\n        /* \"#utility.yul\":2226:2253   */\n      tag_40\n      jump\t// in\n    tag_84:\n        /* \"#utility.yul\":2218:2224   */\n      dup2\n        /* \"#utility.yul\":2214:2254   */\n      add\n        /* \"#utility.yul\":2356:2362   */\n      dup2\n        /* \"#utility.yul\":2344:2354   */\n      dup2\n        /* \"#utility.yul\":2341:2363   */\n      lt\n        /* \"#utility.yul\":2320:2338   */\n      0xffffffffffffffff\n        /* \"#utility.yul\":2308:2318   */\n      dup3\n        /* \"#utility.yul\":2305:2339   */\n      gt\n        /* \"#utility.yul\":2302:2364   */\n      or\n        /* \"#utility.yul\":2299:2387   */\n      iszero\n      tag_85\n      jumpi\n        /* \"#utility.yul\":2367:2385   */\n      tag_86\n      tag_41\n      jump\t// in\n    tag_86:\n        /* \"#utility.yul\":2299:2387   */\n    tag_85:\n        /* \"#utility.yul\":2407:2417   */\n      dup1\n        /* \"#utility.yul\":2403:2405   */\n      0x40\n        /* \"#utility.yul\":2396:2418   */\n      mstore\n        /* \"#utility.yul\":2186:2424   */\n      pop\n        /* \"#utility.yul\":2143:2424   */\n      pop\n      pop\n      jump\t// out\n        /* \"#utility.yul\":2430:2559   */\n    tag_43:\n        /* \"#utility.yul\":2464:2470   */\n      0x00\n        /* \"#utility.yul\":2491:2511   */\n      tag_88\n      tag_29\n      jump\t// in\n    tag_88:\n        /* \"#utility.yul\":2481:2511   */\n      swap1\n      pop\n        /* \"#utility.yul\":2520:2553   */\n      tag_89\n        /* \"#utility.yul\":2548:2552   */\n      dup3\n        /* \"#utility.yul\":2540:2546   */\n      dup3\n        /* \"#utility.yul\":2520:2553   */\n      tag_42\n      jump\t// in\n    tag_89:\n        /* \"#utility.yul\":2430:2559   */\n      swap2\n      swap1\n      pop\n      jump\t// out\n        /* \"#utility.yul\":2565:2873   */\n    tag_44:\n        /* \"#utility.yul\":2627:2631   */\n      0x00\n        /* \"#utility.yul\":2717:2735   */\n      0xffffffffffffffff\n        /* \"#utility.yul\":2709:2715   */\n      dup3\n        /* \"#utility.yul\":2706:2736   */\n      gt\n        /* \"#utility.yul\":2703:2759   */\n      iszero\n      tag_91\n      jumpi\n        /* \"#utility.yul\":2739:2757   */\n      tag_92\n      tag_41\n      jump\t// in\n    tag_92:\n        /* \"#utility.yul\":2703:2759   */\n    tag_91:\n        /* \"#utility.yul\":2777:2806   */\n      tag_93\n        /* \"#utility.yul\":2799:2805   */\n      dup3\n        /* \"#utility.yul\":2777:2806   */\n      tag_40\n      jump\t// in\n    tag_93:\n        /* \"#utility.yul\":2769:2806   */\n      swap1\n      pop\n        /* \"#utility.yul\":2861:2865   */\n      0x20\n        /* \"#utility.yul\":2855:2859   */\n      dup2\n        /* \"#utility.yul\":2851:2866   */\n      add\n        /* \"#utility.yul\":2843:2866   */\n      swap1\n      pop\n        /* \"#utility.yul\":2565:2873   */\n      swap2\n      swap1\n      pop\n      jump\t// out\n        /* \"#utility.yul\":2879:3027   */\n    tag_45:\n        /* \"#utility.yul\":2977:2983   */\n      dup3\n        /* \"#utility.yul\":2972:2975   */\n      dup2\n        /* \"#utility.yul\":2967:2970   */\n      dup4\n        /* \"#utility.yul\":2954:2984   */\n      calldatacopy\n        /* \"#utility.yul\":3018:3019   */\n      0x00\n        /* \"#utility.yul\":3009:3015   */\n      dup4\n        /* \"#utility.yul\":3004:3007   */\n      dup4\n        /* \"#utility.yul\":3000:3016   */\n      add\n        /* \"#utility.yul\":2993:3020   */\n      mstore\n        /* \"#utility.yul\":2879:3027   */\n      pop\n      pop\n      pop\n      jump\t// out\n        /* \"#utility.yul\":3033:3458   */\n    tag_46:\n        /* \"#utility.yul\":3111:3116   */\n      0x00\n        /* \"#utility.yul\":3136:3202   */\n      tag_96\n        /* \"#utility.yul\":3152:3201   */\n      tag_97\n        /* \"#utility.yul\":3194:3200   */\n      dup5\n        /* \"#utility.yul\":3152:3201   */\n      tag_44\n      jump\t// in\n    tag_97:\n        /* \"#utility.yul\":3136:3202   */\n      tag_43\n      jump\t// in\n    tag_96:\n        /* \"#utility.yul\":3127:3202   */\n      swap1\n      pop\n        /* \"#utility.yul\":3225:3231   */\n      dup3\n        /* \"#utility.yul\":3218:3223   */\n      dup2\n        /* \"#utility.yul\":3211:3232   */\n      mstore\n        /* \"#utility.yul\":3263:3267   */\n      0x20\n        /* \"#utility.yul\":3256:3261   */\n      dup2\n        /* \"#utility.yul\":3252:3268   */\n      add\n        /* \"#utility.yul\":3301:3304   */\n      dup5\n        /* \"#utility.yul\":3292:3298   */\n      dup5\n        /* \"#utility.yul\":3287:3290   */\n      dup5\n        /* \"#utility.yul\":3283:3299   */\n      add\n        /* \"#utility.yul\":3280:3305   */\n      gt\n        /* \"#utility.yul\":3277:3389   */\n      iszero\n      tag_98\n      jumpi\n        /* \"#utility.yul\":3308:3387   */\n      tag_99\n      tag_39\n      jump\t// in\n    tag_99:\n        /* \"#utility.yul\":3277:3389   */\n    tag_98:\n        /* \"#utility.yul\":3398:3452   */\n      tag_100\n        /* \"#utility.yul\":3445:3451   */\n      dup5\n        /* \"#utility.yul\":3440:3443   */\n      dup3\n        /* \"#utility.yul\":3435:3438   */\n      dup6\n        /* \"#utility.yul\":3398:3452   */\n      tag_45\n      jump\t// in\n    tag_100:\n        /* \"#utility.yul\":3117:3458   */\n      pop\n        /* \"#utility.yul\":3033:3458   */\n      swap4\n      swap3\n      pop\n      pop\n      pop\n      jump\t// out\n        /* \"#utility.yul\":3478:3818   */\n    tag_47:\n        /* \"#utility.yul\":3534:3539   */\n      0x00\n        /* \"#utility.yul\":3583:3586   */\n      dup3\n        /* \"#utility.yul\":3576:3580   */\n      0x1f\n        /* \"#utility.yul\":3568:3574   */\n      dup4\n        /* \"#utility.yul\":3564:3581   */\n      add\n        /* \"#utility.yul\":3560:3587   */\n      slt\n        /* \"#utility.yul\":3550:3672   */\n      tag_102\n      jumpi\n        /* \"#utility.yul\":3591:3670   */\n      tag_103\n      tag_38\n      jump\t// in\n    tag_103:\n        /* \"#utility.yul\":3550:3672   */\n    tag_102:\n        /* \"#utility.yul\":3708:3714   */\n      dup2\n        /* \"#utility.yul\":3695:3715   */\n      calldataload\n        /* \"#utility.yul\":3733:3812   */\n      tag_104\n        /* \"#utility.yul\":3808:3811   */\n      dup5\n        /* \"#utility.yul\":3800:3806   */\n      dup3\n        /* \"#utility.yul\":3793:3797   */\n      0x20\n        /* \"#utility.yul\":3785:3791   */\n      dup7\n        /* \"#utility.yul\":3781:3798   */\n      add\n        /* \"#utility.yul\":3733:3812   */\n      tag_46\n      jump\t// in\n    tag_104:\n        /* \"#utility.yul\":3724:3812   */\n      swap2\n      pop\n        /* \"#utility.yul\":3540:3818   */\n      pop\n        /* \"#utility.yul\":3478:3818   */\n      swap3\n      swap2\n      pop\n      pop\n      jump\t// out\n        /* \"#utility.yul\":3824:4333   */\n    tag_14:\n        /* \"#utility.yul\":3893:3899   */\n      0x00\n        /* \"#utility.yul\":3942:3944   */\n      0x20\n        /* \"#utility.yul\":3930:3939   */\n      dup3\n        /* \"#utility.yul\":3921:3928   */\n      dup5\n        /* \"#utility.yul\":3917:3940   */\n      sub\n        /* \"#utility.yul\":3913:3945   */\n      slt\n        /* \"#utility.yul\":3910:4029   */\n      iszero\n      tag_106\n      jumpi\n        /* \"#utility.yul\":3948:4027   */\n      tag_107\n      tag_30\n      jump\t// in\n    tag_107:\n        /* \"#utility.yul\":3910:4029   */\n    tag_106:\n        /* \"#utility.yul\":4096:4097   */\n      0x00\n        /* \"#utility.yul\":4085:4094   */\n      dup3\n        /* \"#utility.yul\":4081:4098   */\n      add\n        /* \"#utility.yul\":4068:4099   */\n      calldataload\n        /* \"#utility.yul\":4126:4144   */\n      0xffffffffffffffff\n        /* \"#utility.yul\":4118:4124   */\n      dup2\n        /* \"#utility.yul\":4115:4145   */\n      gt\n        /* \"#utility.yul\":4112:4229   */\n      iszero\n      tag_108\n      jumpi\n        /* \"#utility.yul\":4148:4227   */\n      tag_109\n      tag_31\n      jump\t// in\n    tag_109:\n        /* \"#utility.yul\":4112:4229   */\n    tag_108:\n        /* \"#utility.yul\":4253:4316   */\n      tag_110\n        /* \"#utility.yul\":4308:4315   */\n      dup5\n        /* \"#utility.yul\":4299:4305   */\n      dup3\n        /* \"#utility.yul\":4288:4297   */\n      dup6\n        /* \"#utility.yul\":4284:4306   */\n      add\n        /* \"#utility.yul\":4253:4316   */\n      tag_47\n      jump\t// in\n    tag_110:\n        /* \"#utility.yul\":4243:4316   */\n      swap2\n      pop\n        /* \"#utility.yul\":4039:4326   */\n      pop\n        /* \"#utility.yul\":3824:4333   */\n      swap3\n      swap2\n      pop\n      pop\n      jump\t// out\n        /* \"#utility.yul\":4339:4416   */\n    tag_48:\n        /* \"#utility.yul\":4376:4383   */\n      0x00\n        /* \"#utility.yul\":4405:4410   */\n      dup2\n        /* \"#utility.yul\":4394:4410   */\n      swap1\n      pop\n        /* \"#utility.yul\":4339:4416   */\n      swap2\n      swap1\n      pop\n      jump\t// out\n        /* \"#utility.yul\":4422:4540   */\n    tag_49:\n        /* \"#utility.yul\":4509:4533   */\n      tag_113\n        /* \"#utility.yul\":4527:4532   */\n      dup2\n        /* \"#utility.yul\":4509:4533   */\n      tag_48\n      jump\t// in\n    tag_113:\n        /* \"#utility.yul\":4504:4507   */\n      dup3\n        /* \"#utility.yul\":4497:4534   */\n      mstore\n        /* \"#utility.yul\":4422:4540   */\n      pop\n      pop\n      jump\t// out\n        /* \"#utility.yul\":4546:4768   */\n    tag_17:\n        /* \"#utility.yul\":4639:4643   */\n      0x00\n        /* \"#utility.yul\":4677:4679   */\n      0x20\n        /* \"#utility.yul\":4666:4675   */\n      dup3\n        /* \"#utility.yul\":4662:4680   */\n      add\n        /* \"#utility.yul\":4654:4680   */\n      swap1\n      pop\n        /* \"#utility.yul\":4690:4761   */\n      tag_115\n        /* \"#utility.yul\":4758:4759   */\n      0x00\n        /* \"#utility.yul\":4747:4756   */\n      dup4\n        /* \"#utility.yul\":4743:4760   */\n      add\n        /* \"#utility.yul\":4734:4740   */\n      dup5\n        /* \"#utility.yul\":4690:4761   */\n      tag_49\n      jump\t// in\n    tag_115:\n        /* \"#utility.yul\":4546:4768   */\n      swap3\n      swap2\n      pop\n      pop\n      jump\t// out\n        /* \"#utility.yul\":4774:4943   */\n    tag_50:\n        /* \"#utility.yul\":4858:4869   */\n      0x00\n        /* \"#utility.yul\":4892:4898   */\n      dup3\n        /* \"#utility.yul\":4887:4890   */\n      dup3\n        /* \"#utility.yul\":4880:4899   */\n      mstore\n        /* \"#utility.yul\":4932:4936   */\n      0x20\n        /* \"#utility.yul\":4927:4930   */\n      dup3\n        /* \"#utility.yul\":4923:4937   */\n      add\n        /* \"#utility.yul\":4908:4937   */\n      swap1\n      pop\n        /* \"#utility.yul\":4774:4943   */\n      swap3\n      swap2\n      pop\n      pop\n      jump\t// out\n        /* \"#utility.yul\":4949:5112   */\n    tag_51:\n        /* \"#utility.yul\":5089:5104   */\n      0x416c726561647920766f74656400000000000000000000000000000000000000\n        /* \"#utility.yul\":5085:5086   */\n      0x00\n        /* \"#utility.yul\":5077:5083   */\n      dup3\n        /* \"#utility.yul\":5073:5087   */\n      add\n        /* \"#utility.yul\":5066:5105   */\n      mstore\n        /* \"#utility.yul\":4949:5112   */\n      pop\n      jump\t// out\n        /* \"#utility.yul\":5118:5484   */\n    tag_52:\n        /* \"#utility.yul\":5260:5263   */\n      0x00\n        /* \"#utility.yul\":5281:5348   */\n      tag_119\n        /* \"#utility.yul\":5345:5347   */\n      0x0d\n        /* \"#utility.yul\":5340:5343   */\n      dup4\n        /* \"#utility.yul\":5281:5348   */\n      tag_50\n      jump\t// in\n    tag_119:\n        /* \"#utility.yul\":5274:5348   */\n      swap2\n      pop\n        /* \"#utility.yul\":5357:5450   */\n      tag_120\n        /* \"#utility.yul\":5446:5449   */\n      dup3\n        /* \"#utility.yul\":5357:5450   */\n      tag_51\n      jump\t// in\n    tag_120:\n        /* \"#utility.yul\":5475:5477   */\n      0x20\n        /* \"#utility.yul\":5470:5473   */\n      dup3\n        /* \"#utility.yul\":5466:5478   */\n      add\n        /* \"#utility.yul\":5459:5478   */\n      swap1\n      pop\n        /* \"#utility.yul\":5118:5484   */\n      swap2\n      swap1\n      pop\n      jump\t// out\n        /* \"#utility.yul\":5490:5909   */\n    tag_24:\n        /* \"#utility.yul\":5656:5660   */\n      0x00\n        /* \"#utility.yul\":5694:5696   */\n      0x20\n        /* \"#utility.yul\":5683:5692   */\n      dup3\n        /* \"#utility.yul\":5679:5697   */\n      add\n        /* \"#utility.yul\":5671:5697   */\n      swap1\n      pop\n        /* \"#utility.yul\":5743:5752   */\n      dup2\n        /* \"#utility.yul\":5737:5741   */\n      dup2\n        /* \"#utility.yul\":5733:5753   */\n      sub\n        /* \"#utility.yul\":5729:5730   */\n      0x00\n        /* \"#utility.yul\":5718:5727   */\n      dup4\n        /* \"#utility.yul\":5714:5731   */\n      add\n        /* \"#utility.yul\":5707:5754   */\n      mstore\n        /* \"#utility.yul\":5771:5902   */\n      tag_122\n        /* \"#utility.yul\":5897:5901   */\n      dup2\n        /* \"#utility.yul\":5771:5902   */\n      tag_52\n      jump\t// in\n    tag_122:\n        /* \"#utility.yul\":5763:5902   */\n      swap1\n      pop\n        /* \"#utility.yul\":5490:5909   */\n      swap2\n      swap1\n      pop\n      jump\t// out\n        /* \"#utility.yul\":5915:6014   */\n    tag_53:\n        /* \"#utility.yul\":5967:5973   */\n      0x00\n        /* \"#utility.yul\":6001:6006   */\n      dup2\n        /* \"#utility.yul\":5995:6007   */\n      mload\n        /* \"#utility.yul\":5985:6007   */\n      swap1\n      pop\n        /* \"#utility.yul\":5915:6014   */\n      swap2\n      swap1\n      pop\n      jump\t// out\n        /* \"#utility.yul\":6020:6168   */\n    tag_54:\n        /* \"#utility.yul\":6122:6133   */\n      0x00\n        /* \"#utility.yul\":6159:6162   */\n      dup2\n        /* \"#utility.yul\":6144:6162   */\n      swap1\n      pop\n        /* \"#utility.yul\":6020:6168   */\n      swap3\n      swap2\n      pop\n      pop\n      jump\t// out\n        /* \"#utility.yul\":6174:6313   */\n    tag_55:\n        /* \"#utility.yul\":6263:6269   */\n      dup3\n        /* \"#utility.yul\":6258:6261   */\n      dup2\n        /* \"#utility.yul\":6253:6256   */\n      dup4\n        /* \"#utility.yul\":6247:6270   */\n      mcopy\n        /* \"#utility.yul\":6304:6305   */\n      0x00\n        /* \"#utility.yul\":6295:6301   */\n      dup4\n        /* \"#utility.yul\":6290:6293   */\n      dup4\n        /* \"#utility.yul\":6286:6302   */\n      add\n        /* \"#utility.yul\":6279:6306   */\n      mstore\n        /* \"#utility.yul\":6174:6313   */\n      pop\n      pop\n      pop\n      jump\t// out\n        /* \"#utility.yul\":6319:6709   */\n    tag_56:\n        /* \"#utility.yul\":6425:6428   */\n      0x00\n        /* \"#utility.yul\":6453:6492   */\n      tag_127\n        /* \"#utility.yul\":6486:6491   */\n      dup3\n        /* \"#utility.yul\":6453:6492   */\n      tag_53\n      jump\t// in\n    tag_127:\n        /* \"#utility.yul\":6508:6597   */\n      tag_128\n        /* \"#utility.yul\":6590:6596   */\n      dup2\n        /* \"#utility.yul\":6585:6588   */\n      dup6\n        /* \"#utility.yul\":6508:6597   */\n      tag_54\n      jump\t// in\n    tag_128:\n        /* \"#utility.yul\":6501:6597   */\n      swap4\n      pop\n        /* \"#utility.yul\":6606:6671   */\n      tag_129\n        /* \"#utility.yul\":6664:6670   */\n      dup2\n        /* \"#utility.yul\":6659:6662   */\n      dup6\n        /* \"#utility.yul\":6652:6656   */\n      0x20\n        /* \"#utility.yul\":6645:6650   */\n      dup7\n        /* \"#utility.yul\":6641:6657   */\n      add\n        /* \"#utility.yul\":6606:6671   */\n      tag_55\n      jump\t// in\n    tag_129:\n        /* \"#utility.yul\":6696:6702   */\n      dup1\n        /* \"#utility.yul\":6691:6694   */\n      dup5\n        /* \"#utility.yul\":6687:6703   */\n      add\n        /* \"#utility.yul\":6680:6703   */\n      swap2\n      pop\n        /* \"#utility.yul\":6429:6709   */\n      pop\n        /* \"#utility.yul\":6319:6709   */\n      swap3\n      swap2\n      pop\n      pop\n      jump\t// out\n        /* \"#utility.yul\":6715:6990   */\n    tag_26:\n        /* \"#utility.yul\":6847:6850   */\n      0x00\n        /* \"#utility.yul\":6869:6964   */\n      tag_131\n        /* \"#utility.yul\":6960:6963   */\n      dup3\n        /* \"#utility.yul\":6951:6957   */\n      dup5\n        /* \"#utility.yul\":6869:6964   */\n      tag_56\n      jump\t// in\n    tag_131:\n        /* \"#utility.yul\":6862:6964   */\n      swap2\n      pop\n        /* \"#utility.yul\":6981:6984   */\n      dup2\n        /* \"#utility.yul\":6974:6984   */\n      swap1\n      pop\n        /* \"#utility.yul\":6715:6990   */\n      swap3\n      swap2\n      pop\n      pop\n      jump\t// out\n        /* \"#utility.yul\":6996:7176   */\n    tag_57:\n        /* \"#utility.yul\":7044:7121   */\n      0x4e487b7100000000000000000000000000000000000000000000000000000000\n        /* \"#utility.yul\":7041:7042   */\n      0x00\n        /* \"#utility.yul\":7034:7122   */\n      mstore\n        /* \"#utility.yul\":7141:7145   */\n      0x11\n        /* \"#utility.yul\":7138:7139   */\n      0x04\n        /* \"#utility.yul\":7131:7146   */\n      mstore\n        /* \"#utility.yul\":7165:7169   */\n      0x24\n        /* \"#utility.yul\":7162:7163   */\n      0x00\n        /* \"#utility.yul\":7155:7170   */\n      revert\n        /* \"#utility.yul\":7182:7373   */\n    tag_28:\n        /* \"#utility.yul\":7222:7225   */\n      0x00\n        /* \"#utility.yul\":7241:7261   */\n      tag_134\n        /* \"#utility.yul\":7259:7260   */\n      dup3\n        /* \"#utility.yul\":7241:7261   */\n      tag_48\n      jump\t// in\n    tag_134:\n        /* \"#utility.yul\":7236:7261   */\n      swap2\n      pop\n        /* \"#utility.yul\":7275:7295   */\n      tag_135\n        /* \"#utility.yul\":7293:7294   */\n      dup4\n        /* \"#utility.yul\":7275:7295   */\n      tag_48\n      jump\t// in\n    tag_135:\n        /* \"#utility.yul\":7270:7295   */\n      swap3\n      pop\n        /* \"#utility.yul\":7318:7319   */\n      dup3\n        /* \"#utility.yul\":7315:7316   */\n      dup3\n        /* \"#utility.yul\":7311:7320   */\n      add\n        /* \"#utility.yul\":7304:7320   */\n      swap1\n      pop\n        /* \"#utility.yul\":7339:7342   */\n      dup1\n        /* \"#utility.yul\":7336:7337   */\n      dup3\n        /* \"#utility.yul\":7333:7343   */\n      gt\n        /* \"#utility.yul\":7330:7366   */\n      iszero\n      tag_136\n      jumpi\n        /* \"#utility.yul\":7346:7364   */\n      tag_137\n      tag_57\n      jump\t// in\n    tag_137:\n        /* \"#utility.yul\":7330:7366   */\n    tag_136:\n        /* \"#utility.yul\":7182:7373   */\n      swap3\n      swap2\n      pop\n      pop\n      jump\t// out\n\n    auxdata: 0xa2646970667358221220ed8b3d07cb29b9980650321e9dac3a8ca04c726cd25bb71e8216347d20bfed8964736f6c634300081e0033\n}\n",
				"bytecode": {
					"linkReferences": {},
					"object": "6080604052348015600e575f5ffd5b506106108061001c5f395ff3fe608060405234801561000f575f5ffd5b506004361061003f575f3560e01c8063af0dbe5414610043578063b99ef1fa14610073578063fc36e15b146100a3575b5f5ffd5b61005d60048036038101906100589190610288565b6100bf565b60405161006a91906102cd565b60405180910390f35b61008d60048036038101906100889190610422565b6100dc565b60405161009a9190610481565b60405180910390f35b6100bd60048036038101906100b89190610422565b610108565b005b6001602052805f5260405f205f915054906101000a900460ff1681565b5f818051602081018201805184825260208301602085012081835280955050505050505f915090505481565b60015f3373ffffffffffffffffffffffffffffffffffffffff1673ffffffffffffffffffffffffffffffffffffffff1681526020019081526020015f205f9054906101000a900460ff1615610192576040517f08c379a0000000000000000000000000000000000000000000000000000000008152600401610189906104f4565b60405180910390fd5b60015f826040516101a39190610564565b90815260200160405180910390205f8282546101bf91906105a7565b925050819055506001805f3373ffffffffffffffffffffffffffffffffffffffff1673ffffffffffffffffffffffffffffffffffffffff1681526020019081526020015f205f6101000a81548160ff02191690831515021790555050565b5f604051905090565b5f5ffd5b5f5ffd5b5f73ffffffffffffffffffffffffffffffffffffffff82169050919050565b5f6102578261022e565b9050919050565b6102678161024d565b8114610271575f5ffd5b50565b5f813590506102828161025e565b92915050565b5f6020828403121561029d5761029c610226565b5b5f6102aa84828501610274565b91505092915050565b5f8115159050919050565b6102c7816102b3565b82525050565b5f6020820190506102e05f8301846102be565b92915050565b5f5ffd5b5f5ffd5b5f601f19601f8301169050919050565b7f4e487b71000000000000000000000000000000000000000000000000000000005f52604160045260245ffd5b610334826102ee565b810181811067ffffffffffffffff82111715610353576103526102fe565b5b80604052505050565b5f61036561021d565b9050610371828261032b565b919050565b5f67ffffffffffffffff8211156103905761038f6102fe565b5b610399826102ee565b9050602081019050919050565b828183375f83830152505050565b5f6103c66103c184610376565b61035c565b9050828152602081018484840111156103e2576103e16102ea565b5b6103ed8482856103a6565b509392505050565b5f82601f830112610409576104086102e6565b5b81356104198482602086016103b4565b91505092915050565b5f6020828403121561043757610436610226565b5b5f82013567ffffffffffffffff8111156104545761045361022a565b5b610460848285016103f5565b91505092915050565b5f819050919050565b61047b81610469565b82525050565b5f6020820190506104945f830184610472565b92915050565b5f82825260208201905092915050565b7f416c726561647920766f746564000000000000000000000000000000000000005f82015250565b5f6104de600d8361049a565b91506104e9826104aa565b602082019050919050565b5f6020820190508181035f83015261050b816104d2565b9050919050565b5f81519050919050565b5f81905092915050565b8281835e5f83830152505050565b5f61053e82610512565b610548818561051c565b9350610558818560208601610526565b80840191505092915050565b5f61056f8284610534565b915081905092915050565b7f4e487b71000000000000000000000000000000000000000000000000000000005f52601160045260245ffd5b5f6105b182610469565b91506105bc83610469565b92508282019050808211156105d4576105d361057a565b5b9291505056fea2646970667358221220ed8b3d07cb29b9980650321e9dac3a8ca04c726cd25bb71e8216347d20bfed8964736f6c634300081e0033",
					"opcodes": "PUSH1 0x80 PUSH1 0x40 MSTORE CALLVALUE DUP1 ISZERO PUSH1 0xE JUMPI PUSH0 PUSH0 REVERT JUMPDEST POP PUSH2 0x610 DUP1 PUSH2 0x1C PUSH0 CODECOPY PUSH0 RETURN INVALID PUSH1 0x80 PUSH1 0x40 MSTORE CALLVALUE DUP1 ISZERO PUSH2 0xF JUMPI PUSH0 PUSH0 REVERT JUMPDEST POP PUSH1 0x4 CALLDATASIZE LT PUSH2 0x3F JUMPI PUSH0 CALLDATALOAD PUSH1 0xE0 SHR DUP1 PUSH4 0xAF0DBE54 EQ PUSH2 0x43 JUMPI DUP1 PUSH4 0xB99EF1FA EQ PUSH2 0x73 JUMPI DUP1 PUSH4 0xFC36E15B EQ PUSH2 0xA3 JUMPI JUMPDEST PUSH0 PUSH0 REVERT JUMPDEST PUSH2 0x5D PUSH1 0x4 DUP1 CALLDATASIZE SUB DUP2 ADD SWAP1 PUSH2 0x58 SWAP2 SWAP1 PUSH2 0x288 JUMP JUMPDEST PUSH2 0xBF JUMP JUMPDEST PUSH1 0x40 MLOAD PUSH2 0x6A SWAP2 SWAP1 PUSH2 0x2CD JUMP JUMPDEST PUSH1 0x40 MLOAD DUP1 SWAP2 SUB SWAP1 RETURN JUMPDEST PUSH2 0x8D PUSH1 0x4 DUP1 CALLDATASIZE SUB DUP2 ADD SWAP1 PUSH2 0x88 SWAP2 SWAP1 PUSH2 0x422 JUMP JUMPDEST PUSH2 0xDC JUMP JUMPDEST PUSH1 0x40 MLOAD PUSH2 0x9A SWAP2 SWAP1 PUSH2 0x481 JUMP JUMPDEST PUSH1 0x40 MLOAD DUP1 SWAP2 SUB SWAP1 RETURN JUMPDEST PUSH2 0xBD PUSH1 0x4 DUP1 CALLDATASIZE SUB DUP2 ADD SWAP1 PUSH2 0xB8 SWAP2 SWAP1 PUSH2 0x422 JUMP JUMPDEST PUSH2 0x108 JUMP JUMPDEST STOP JUMPDEST PUSH1 0x1 PUSH1 0x20 MSTORE DUP1 PUSH0 MSTORE PUSH1 0x40 PUSH0 KECCAK256 PUSH0 SWAP2 POP SLOAD SWAP1 PUSH2 0x100 EXP SWAP1 DIV PUSH1 0xFF AND DUP2 JUMP JUMPDEST PUSH0 DUP2 DUP1 MLOAD PUSH1 0x20 DUP2 ADD DUP3 ADD DUP1 MLOAD DUP5 DUP3 MSTORE PUSH1 0x20 DUP4 ADD PUSH1 0x20 DUP6 ADD KECCAK256 DUP2 DUP4 MSTORE DUP1 SWAP6 POP POP POP POP POP POP PUSH0 SWAP2 POP SWAP1 POP SLOAD DUP2 JUMP JUMPDEST PUSH1 0x1 PUSH0 CALLER PUSH20 0xFFFFFFFFFFFFFFFFFFFFFFFFFFFFFFFFFFFFFFFF AND PUSH20 0xFFFFFFFFFFFFFFFFFFFFFFFFFFFFFFFFFFFFFFFF AND DUP2 MSTORE PUSH1 0x20 ADD SWAP1 DUP2 MSTORE PUSH1 0x20 ADD PUSH0 KECCAK256 PUSH0 SWAP1 SLOAD SWAP1 PUSH2 0x100 EXP SWAP1 DIV PUSH1 0xFF AND ISZERO PUSH2 0x192 JUMPI PUSH1 0x40 MLOAD PUSH32 0x8C379A000000000000000000000000000000000000000000000000000000000 DUP2 MSTORE PUSH1 0x4 ADD PUSH2 0x189 SWAP1 PUSH2 0x4F4 JUMP JUMPDEST PUSH1 0x40 MLOAD DUP1 SWAP2 SUB SWAP1 REVERT JUMPDEST PUSH1 0x1 PUSH0 DUP3 PUSH1 0x40 MLOAD PUSH2 0x1A3 SWAP2 SWAP1 PUSH2 0x564 JUMP JUMPDEST SWAP1 DUP2 MSTORE PUSH1 0x20 ADD PUSH1 0x40 MLOAD DUP1 SWAP2 SUB SWAP1 KECCAK256 PUSH0 DUP3 DUP3 SLOAD PUSH2 0x1BF SWAP2 SWAP1 PUSH2 0x5A7 JUMP JUMPDEST SWAP3 POP POP DUP2 SWAP1 SSTORE POP PUSH1 0x1 DUP1 PUSH0 CALLER PUSH20 0xFFFFFFFFFFFFFFFFFFFFFFFFFFFFFFFFFFFFFFFF AND PUSH20 0xFFFFFFFFFFFFFFFFFFFFFFFFFFFFFFFFFFFFFFFF AND DUP2 MSTORE PUSH1 0x20 ADD SWAP1 DUP2 MSTORE PUSH1 0x20 ADD PUSH0 KECCAK256 PUSH0 PUSH2 0x100 EXP DUP2 SLOAD DUP2 PUSH1 0xFF MUL NOT AND SWAP1 DUP4 ISZERO ISZERO MUL OR SWAP1 SSTORE POP POP JUMP JUMPDEST PUSH0 PUSH1 0x40 MLOAD SWAP1 POP SWAP1 JUMP JUMPDEST PUSH0 PUSH0 REVERT JUMPDEST PUSH0 PUSH0 REVERT JUMPDEST PUSH0 PUSH20 0xFFFFFFFFFFFFFFFFFFFFFFFFFFFFFFFFFFFFFFFF DUP3 AND SWAP1 POP SWAP2 SWAP1 POP JUMP JUMPDEST PUSH0 PUSH2 0x257 DUP3 PUSH2 0x22E JUMP JUMPDEST SWAP1 POP SWAP2 SWAP1 POP JUMP JUMPDEST PUSH2 0x267 DUP2 PUSH2 0x24D JUMP JUMPDEST DUP2 EQ PUSH2 0x271 JUMPI PUSH0 PUSH0 REVERT JUMPDEST POP JUMP JUMPDEST PUSH0 DUP2 CALLDATALOAD SWAP1 POP PUSH2 0x282 DUP2 PUSH2 0x25E JUMP JUMPDEST SWAP3 SWAP2 POP POP JUMP JUMPDEST PUSH0 PUSH1 0x20 DUP3 DUP5 SUB SLT ISZERO PUSH2 0x29D JUMPI PUSH2 0x29C PUSH2 0x226 JUMP JUMPDEST JUMPDEST PUSH0 PUSH2 0x2AA DUP5 DUP3 DUP6 ADD PUSH2 0x274 JUMP JUMPDEST SWAP2 POP POP SWAP3 SWAP2 POP POP JUMP JUMPDEST PUSH0 DUP2 ISZERO ISZERO SWAP1 POP SWAP2 SWAP1 POP JUMP JUMPDEST PUSH2 0x2C7 DUP2 PUSH2 0x2B3 JUMP JUMPDEST DUP3 MSTORE POP POP JUMP JUMPDEST PUSH0 PUSH1 0x20 DUP3 ADD SWAP1 POP PUSH2 0x2E0 PUSH0 DUP4 ADD DUP5 PUSH2 0x2BE JUMP JUMPDEST SWAP3 SWAP2 POP POP JUMP JUMPDEST PUSH0 PUSH0 REVERT JUMPDEST PUSH0 PUSH0 REVERT JUMPDEST PUSH0 PUSH1 0x1F NOT PUSH1 0x1F DUP4 ADD AND SWAP1 POP SWAP2 SWAP1 POP JUMP JUMPDEST PUSH32 0x4E487B7100000000000000000000000000000000000000000000000000000000 PUSH0 MSTORE PUSH1 0x41 PUSH1 0x4 MSTORE PUSH1 0x24 PUSH0 REVERT JUMPDEST PUSH2 0x334 DUP3 PUSH2 0x2EE JUMP JUMPDEST DUP2 ADD DUP2 DUP2 LT PUSH8 0xFFFFFFFFFFFFFFFF DUP3 GT OR ISZERO PUSH2 0x353 JUMPI PUSH2 0x352 PUSH2 0x2FE JUMP JUMPDEST JUMPDEST DUP1 PUSH1 0x40 MSTORE POP POP POP JUMP JUMPDEST PUSH0 PUSH2 0x365 PUSH2 0x21D JUMP JUMPDEST SWAP1 POP PUSH2 0x371 DUP3 DUP3 PUSH2 0x32B JUMP JUMPDEST SWAP2 SWAP1 POP JUMP JUMPDEST PUSH0 PUSH8 0xFFFFFFFFFFFFFFFF DUP3 GT ISZERO PUSH2 0x390 JUMPI PUSH2 0x38F PUSH2 0x2FE JUMP JUMPDEST JUMPDEST PUSH2 0x399 DUP3 PUSH2 0x2EE JUMP JUMPDEST SWAP1 POP PUSH1 0x20 DUP2 ADD SWAP1 POP SWAP2 SWAP1 POP JUMP JUMPDEST DUP3 DUP2 DUP4 CALLDATACOPY PUSH0 DUP4 DUP4 ADD MSTORE POP POP POP JUMP JUMPDEST PUSH0 PUSH2 0x3C6 PUSH2 0x3C1 DUP5 PUSH2 0x376 JUMP JUMPDEST PUSH2 0x35C JUMP JUMPDEST SWAP1 POP DUP3 DUP2 MSTORE PUSH1 0x20 DUP2 ADD DUP5 DUP5 DUP5 ADD GT ISZERO PUSH2 0x3E2 JUMPI PUSH2 0x3E1 PUSH2 0x2EA JUMP JUMPDEST JUMPDEST PUSH2 0x3ED DUP5 DUP3 DUP6 PUSH2 0x3A6 JUMP JUMPDEST POP SWAP4 SWAP3 POP POP POP JUMP JUMPDEST PUSH0 DUP3 PUSH1 0x1F DUP4 ADD SLT PUSH2 0x409 JUMPI PUSH2 0x408 PUSH2 0x2E6 JUMP JUMPDEST JUMPDEST DUP2 CALLDATALOAD PUSH2 0x419 DUP5 DUP3 PUSH1 0x20 DUP7 ADD PUSH2 0x3B4 JUMP JUMPDEST SWAP2 POP POP SWAP3 SWAP2 POP POP JUMP JUMPDEST PUSH0 PUSH1 0x20 DUP3 DUP5 SUB SLT ISZERO PUSH2 0x437 JUMPI PUSH2 0x436 PUSH2 0x226 JUMP JUMPDEST JUMPDEST PUSH0 DUP3 ADD CALLDATALOAD PUSH8 0xFFFFFFFFFFFFFFFF DUP2 GT ISZERO PUSH2 0x454 JUMPI PUSH2 0x453 PUSH2 0x22A JUMP JUMPDEST JUMPDEST PUSH2 0x460 DUP5 DUP3 DUP6 ADD PUSH2 0x3F5 JUMP JUMPDEST SWAP2 POP POP SWAP3 SWAP2 POP POP JUMP JUMPDEST PUSH0 DUP2 SWAP1 POP SWAP2 SWAP1 POP JUMP JUMPDEST PUSH2 0x47B DUP2 PUSH2 0x469 JUMP JUMPDEST DUP3 MSTORE POP POP JUMP JUMPDEST PUSH0 PUSH1 0x20 DUP3 ADD SWAP1 POP PUSH2 0x494 PUSH0 DUP4 ADD DUP5 PUSH2 0x472 JUMP JUMPDEST SWAP3 SWAP2 POP POP JUMP JUMPDEST PUSH0 DUP3 DUP3 MSTORE PUSH1 0x20 DUP3 ADD SWAP1 POP SWAP3 SWAP2 POP POP JUMP JUMPDEST PUSH32 0x416C726561647920766F74656400000000000000000000000000000000000000 PUSH0 DUP3 ADD MSTORE POP JUMP JUMPDEST PUSH0 PUSH2 0x4DE PUSH1 0xD DUP4 PUSH2 0x49A JUMP JUMPDEST SWAP2 POP PUSH2 0x4E9 DUP3 PUSH2 0x4AA JUMP JUMPDEST PUSH1 0x20 DUP3 ADD SWAP1 POP SWAP2 SWAP1 POP JUMP JUMPDEST PUSH0 PUSH1 0x20 DUP3 ADD SWAP1 POP DUP2 DUP2 SUB PUSH0 DUP4 ADD MSTORE PUSH2 0x50B DUP2 PUSH2 0x4D2 JUMP JUMPDEST SWAP1 POP SWAP2 SWAP1 POP JUMP JUMPDEST PUSH0 DUP2 MLOAD SWAP1 POP SWAP2 SWAP1 POP JUMP JUMPDEST PUSH0 DUP2 SWAP1 POP SWAP3 SWAP2 POP POP JUMP JUMPDEST DUP3 DUP2 DUP4 MCOPY PUSH0 DUP4 DUP4 ADD MSTORE POP POP POP JUMP JUMPDEST PUSH0 PUSH2 0x53E DUP3 PUSH2 0x512 JUMP JUMPDEST PUSH2 0x548 DUP2 DUP6 PUSH2 0x51C JUMP JUMPDEST SWAP4 POP PUSH2 0x558 DUP2 DUP6 PUSH1 0x20 DUP7 ADD PUSH2 0x526 JUMP JUMPDEST DUP1 DUP5 ADD SWAP2 POP POP SWAP3 SWAP2 POP POP JUMP JUMPDEST PUSH0 PUSH2 0x56F DUP3 DUP5 PUSH2 0x534 JUMP JUMPDEST SWAP2 POP DUP2 SWAP1 POP SWAP3 SWAP2 POP POP JUMP JUMPDEST PUSH32 0x4E487B7100000000000000000000000000000000000000000000000000000000 PUSH0 MSTORE PUSH1 0x11 PUSH1 0x4 MSTORE PUSH1 0x24 PUSH0 REVERT JUMPDEST PUSH0 PUSH2 0x5B1 DUP3 PUSH2 0x469 JUMP JUMPDEST SWAP2 POP PUSH2 0x5BC DUP4 PUSH2 0x469 JUMP JUMPDEST SWAP3 POP DUP3 DUP3 ADD SWAP1 POP DUP1 DUP3 GT ISZERO PUSH2 0x5D4 JUMPI PUSH2 0x5D3 PUSH2 0x57A JUMP JUMPDEST JUMPDEST SWAP3 SWAP2 POP POP JUMP INVALID LOG2 PUSH5 0x6970667358 0x22 SLT KECCAK256 0xED DUP12 RETURNDATASIZE SMOD 0xCB 0x29 0xB9 SWAP9 MOD POP ORIGIN 0x1E SWAP14 0xAC GASPRICE DUP13 LOG0 0x4C PUSH19 0x6CD25BB71E8216347D20BFED8964736F6C6343 STOP ADDMOD 0x1E STOP CALLER "
				},
				"gasEstimates": {
					"creation": {
						"codeDepositCost": "310400",
						"executionCost": "347",
						"totalCost": "310747"
					},
					"external": {
						"vote(string)": "infinite",
						"voter(address)": "2811",
						"votes(string)": "infinite"
					}
				},
				"methodIdentifiers": {
					"vote(string)": "fc36e15b",
					"voter(address)": "af0dbe54",
					"votes(string)": "b99ef1fa"
				}
			},
			"storageLayout": {
				"storage": [
					{
						"astId": 5,
						"contract": "contracts/xzq_7_vote2.sol:Voteing",
						"label": "votes",
						"offset": 0,
						"slot": "0",
						"type": "t_mapping(t_string_memory_ptr,t_uint256)"
					},
					{
						"astId": 9,
						"contract": "contracts/xzq_7_vote2.sol:Voteing",
						"label": "voter",
						"offset": 0,
						"slot": "1",
						"type": "t_mapping(t_address,t_bool)"
					}
				],
				"types": {
					"t_address": {
						"encoding": "inplace",
						"label": "address",
						"numberOfBytes": "20"
					},
					"t_bool": {
						"encoding": "inplace",
						"label": "bool",
						"numberOfBytes": "1"
					},
					"t_mapping(t_address,t_bool)": {
						"encoding": "mapping",
						"key": "t_address",
						"label": "mapping(address => bool)",
						"numberOfBytes": "32",
						"value": "t_bool"
					},
					"t_mapping(t_string_memory_ptr,t_uint256)": {
						"encoding": "mapping",
						"key": "t_string_memory_ptr",
						"label": "mapping(string => uint256)",
						"numberOfBytes": "32",
						"value": "t_uint256"
					},
					"t_string_memory_ptr": {
						"encoding": "bytes",
						"label": "string",
						"numberOfBytes": "32"
					},
					"t_uint256": {
						"encoding": "inplace",
						"label": "uint256",
						"numberOfBytes": "32"
					}
				}
			},
			"userdoc": {
				"kind": "user",
				"methods": {},
				"version": 1
			}
		}
	}
}