{
	"contracts/xzq_3_owner.sol": {
		"OwnableExample": {
			"abi": [
				{
					"inputs": [],
					"stateMutability": "nonpayable",
					"type": "constructor"
				},
				{
					"inputs": [],
					"name": "owner",
					"outputs": [
						{
							"internalType": "address",
							"name": "",
							"type": "address"
						}
					],
					"stateMutability": "view",
					"type": "function"
				},
				{
					"inputs": [],
					"name": "secret",
					"outputs": [
						{
							"internalType": "string",
							"name": "",
							"type": "string"
						}
					],
					"stateMutability": "view",
					"type": "function"
				},
				{
					"inputs": [
						{
							"internalType": "string",
							"name": "_secret",
							"type": "string"
						}
					],
					"name": "setSecret",
					"outputs": [],
					"stateMutability": "nonpayable",
					"type": "function"
				}
			],
			"devdoc": {
				"kind": "dev",
				"methods": {},
				"version": 1
			},
			"evm": {
				"assembly": "    /* \"contracts/xzq_3_owner.sol\":60:415  contract OwnableExample{... */\n  mstore(0x40, 0x80)\n    /* \"contracts/xzq_3_owner.sol\":119:187  constructor(){... */\n  callvalue\n  dup1\n  iszero\n  tag_1\n  jumpi\n  revert(0x00, 0x00)\ntag_1:\n  pop\n    /* \"contracts/xzq_3_owner.sol\":149:159  msg.sender */\n  caller\n    /* \"contracts/xzq_3_owner.sol\":143:148  owner */\n  0x00\n  0x00\n    /* \"contracts/xzq_3_owner.sol\":143:159  owner=msg.sender */\n  0x0100\n  exp\n  dup2\n  sload\n  dup2\n  0xffffffffffffffffffffffffffffffffffffffff\n  mul\n  not\n  and\n  swap1\n  dup4\n  0xffffffffffffffffffffffffffffffffffffffff\n  and\n  mul\n  or\n  swap1\n  sstore\n  pop\n    /* \"contracts/xzq_3_owner.sol\":60:415  contract OwnableExample{... */\n  dataSize(sub_0)\n  dup1\n  dataOffset(sub_0)\n  0x00\n  codecopy\n  0x00\n  return\nstop\n\nsub_0: assembly {\n        /* \"contracts/xzq_3_owner.sol\":60:415  contract OwnableExample{... */\n      mstore(0x40, 0x80)\n      callvalue\n      dup1\n      iszero\n      tag_1\n      jumpi\n      revert(0x00, 0x00)\n    tag_1:\n      pop\n      jumpi(tag_2, lt(calldatasize, 0x04))\n      shr(0xe0, calldataload(0x00))\n      dup1\n      0x7ed6c926\n      eq\n      tag_3\n      jumpi\n      dup1\n      0x8da5cb5b\n      eq\n      tag_4\n      jumpi\n      dup1\n      0xd1efd30d\n      eq\n      tag_5\n      jumpi\n    tag_2:\n      revert(0x00, 0x00)\n        /* \"contracts/xzq_3_owner.sol\":321:412  function setSecret(string memory _secret) public onlyOwner{... */\n    tag_3:\n      tag_6\n      0x04\n      dup1\n      calldatasize\n      sub\n      dup2\n      add\n      swap1\n      tag_7\n      swap2\n      swap1\n      tag_8\n      jump\t// in\n    tag_7:\n      tag_9\n      jump\t// in\n    tag_6:\n      stop\n        /* \"contracts/xzq_3_owner.sol\":90:110  address public owner */\n    tag_4:\n      tag_10\n      tag_11\n      jump\t// in\n    tag_10:\n      mload(0x40)\n      tag_12\n      swap2\n      swap1\n      tag_13\n      jump\t// in\n    tag_12:\n      mload(0x40)\n      dup1\n      swap2\n      sub\n      swap1\n      return\n        /* \"contracts/xzq_3_owner.sol\":292:312  string public secret */\n    tag_5:\n      tag_14\n      tag_15\n      jump\t// in\n    tag_14:\n      mload(0x40)\n      tag_16\n      swap2\n      swap1\n      tag_17\n      jump\t// in\n    tag_16:\n      mload(0x40)\n      dup1\n      swap2\n      sub\n      swap1\n      return\n        /* \"contracts/xzq_3_owner.sol\":321:412  function setSecret(string memory _secret) public onlyOwner{... */\n    tag_9:\n        /* \"contracts/xzq_3_owner.sol\":246:251  owner */\n      0x00\n      0x00\n      swap1\n      sload\n      swap1\n      0x0100\n      exp\n      swap1\n      div\n      0xffffffffffffffffffffffffffffffffffffffff\n      and\n        /* \"contracts/xzq_3_owner.sol\":234:251  msg.sender==owner */\n      0xffffffffffffffffffffffffffffffffffffffff\n      and\n        /* \"contracts/xzq_3_owner.sol\":234:244  msg.sender */\n      caller\n        /* \"contracts/xzq_3_owner.sol\":234:251  msg.sender==owner */\n      0xffffffffffffffffffffffffffffffffffffffff\n      and\n      eq\n        /* \"contracts/xzq_3_owner.sol\":226:264  require(msg.sender==owner,\"Not owner\") */\n      tag_19\n      jumpi\n      mload(0x40)\n      0x08c379a000000000000000000000000000000000000000000000000000000000\n      dup2\n      mstore\n      0x04\n      add\n      tag_20\n      swap1\n      tag_21\n      jump\t// in\n    tag_20:\n      mload(0x40)\n      dup1\n      swap2\n      sub\n      swap1\n      revert\n    tag_19:\n        /* \"contracts/xzq_3_owner.sol\":397:404  _secret */\n      dup1\n        /* \"contracts/xzq_3_owner.sol\":390:396  secret */\n      0x01\n        /* \"contracts/xzq_3_owner.sol\":390:404  secret=_secret */\n      swap1\n      dup2\n      tag_23\n      swap2\n      swap1\n      tag_24\n      jump\t// in\n    tag_23:\n      pop\n        /* \"contracts/xzq_3_owner.sol\":321:412  function setSecret(string memory _secret) public onlyOwner{... */\n      pop\n      jump\t// out\n        /* \"contracts/xzq_3_owner.sol\":90:110  address public owner */\n    tag_11:\n      0x00\n      0x00\n      swap1\n      sload\n      swap1\n      0x0100\n      exp\n      swap1\n      div\n      0xffffffffffffffffffffffffffffffffffffffff\n      and\n      dup2\n      jump\t// out\n        /* \"contracts/xzq_3_owner.sol\":292:312  string public secret */\n    tag_15:\n      0x01\n      dup1\n      sload\n      tag_25\n      swap1\n      tag_26\n      jump\t// in\n    tag_25:\n      dup1\n      0x1f\n      add\n      0x20\n      dup1\n      swap2\n      div\n      mul\n      0x20\n      add\n      mload(0x40)\n      swap1\n      dup2\n      add\n      0x40\n      mstore\n      dup1\n      swap3\n      swap2\n      swap1\n      dup2\n      dup2\n      mstore\n      0x20\n      add\n      dup3\n      dup1\n      sload\n      tag_27\n      swap1\n      tag_26\n      jump\t// in\n    tag_27:\n      dup1\n      iszero\n      tag_28\n      jumpi\n      dup1\n      0x1f\n      lt\n      tag_29\n      jumpi\n      0x0100\n      dup1\n      dup4\n      sload\n      div\n      mul\n      dup4\n      mstore\n      swap2\n      0x20\n      add\n      swap2\n      jump(tag_28)\n    tag_29:\n      dup3\n      add\n      swap2\n      swap1\n      0x00\n      mstore\n      keccak256(0x00, 0x20)\n      swap1\n    tag_30:\n      dup2\n      sload\n      dup2\n      mstore\n      swap1\n      0x01\n      add\n      swap1\n      0x20\n      add\n      dup1\n      dup4\n      gt\n      tag_30\n      jumpi\n      dup3\n      swap1\n      sub\n      0x1f\n      and\n      dup3\n      add\n      swap2\n    tag_28:\n      pop\n      pop\n      pop\n      pop\n      pop\n      dup2\n      jump\t// out\n        /* \"#utility.yul\":7:82   */\n    tag_31:\n        /* \"#utility.yul\":40:46   */\n      0x00\n        /* \"#utility.yul\":73:75   */\n      0x40\n        /* \"#utility.yul\":67:76   */\n      mload\n        /* \"#utility.yul\":57:76   */\n      swap1\n      pop\n        /* \"#utility.yul\":7:82   */\n      swap1\n      jump\t// out\n        /* \"#utility.yul\":88:205   */\n    tag_32:\n        /* \"#utility.yul\":197:198   */\n      0x00\n        /* \"#utility.yul\":194:195   */\n      0x00\n        /* \"#utility.yul\":187:199   */\n      revert\n        /* \"#utility.yul\":211:328   */\n    tag_33:\n        /* \"#utility.yul\":320:321   */\n      0x00\n        /* \"#utility.yul\":317:318   */\n      0x00\n        /* \"#utility.yul\":310:322   */\n      revert\n        /* \"#utility.yul\":334:451   */\n    tag_34:\n        /* \"#utility.yul\":443:444   */\n      0x00\n        /* \"#utility.yul\":440:441   */\n      0x00\n        /* \"#utility.yul\":433:445   */\n      revert\n        /* \"#utility.yul\":457:574   */\n    tag_35:\n        /* \"#utility.yul\":566:567   */\n      0x00\n        /* \"#utility.yul\":563:564   */\n      0x00\n        /* \"#utility.yul\":556:568   */\n      revert\n        /* \"#utility.yul\":580:682   */\n    tag_36:\n        /* \"#utility.yul\":621:627   */\n      0x00\n        /* \"#utility.yul\":672:674   */\n      0x1f\n        /* \"#utility.yul\":668:675   */\n      not\n        /* \"#utility.yul\":663:665   */\n      0x1f\n        /* \"#utility.yul\":656:661   */\n      dup4\n        /* \"#utility.yul\":652:666   */\n      add\n        /* \"#utility.yul\":648:676   */\n      and\n        /* \"#utility.yul\":638:676   */\n      swap1\n      pop\n        /* \"#utility.yul\":580:682   */\n      swap2\n      swap1\n      pop\n      jump\t// out\n        /* \"#utility.yul\":688:868   */\n    tag_37:\n        /* \"#utility.yul\":736:813   */\n      0x4e487b7100000000000000000000000000000000000000000000000000000000\n        /* \"#utility.yul\":733:734   */\n      0x00\n        /* \"#utility.yul\":726:814   */\n      mstore\n        /* \"#utility.yul\":833:837   */\n      0x41\n        /* \"#utility.yul\":830:831   */\n      0x04\n        /* \"#utility.yul\":823:838   */\n      mstore\n        /* \"#utility.yul\":857:861   */\n      0x24\n        /* \"#utility.yul\":854:855   */\n      0x00\n        /* \"#utility.yul\":847:862   */\n      revert\n        /* \"#utility.yul\":874:1155   */\n    tag_38:\n        /* \"#utility.yul\":957:984   */\n      tag_79\n        /* \"#utility.yul\":979:983   */\n      dup3\n        /* \"#utility.yul\":957:984   */\n      tag_36\n      jump\t// in\n    tag_79:\n        /* \"#utility.yul\":949:955   */\n      dup2\n        /* \"#utility.yul\":945:985   */\n      add\n        /* \"#utility.yul\":1087:1093   */\n      dup2\n        /* \"#utility.yul\":1075:1085   */\n      dup2\n        /* \"#utility.yul\":1072:1094   */\n      lt\n        /* \"#utility.yul\":1051:1069   */\n      0xffffffffffffffff\n        /* \"#utility.yul\":1039:1049   */\n      dup3\n        /* \"#utility.yul\":1036:1070   */\n      gt\n        /* \"#utility.yul\":1033:1095   */\n      or\n        /* \"#utility.yul\":1030:1118   */\n      iszero\n      tag_80\n      jumpi\n        /* \"#utility.yul\":1098:1116   */\n      tag_81\n      tag_37\n      jump\t// in\n    tag_81:\n        /* \"#utility.yul\":1030:1118   */\n    tag_80:\n        /* \"#utility.yul\":1138:1148   */\n      dup1\n        /* \"#utility.yul\":1134:1136   */\n      0x40\n        /* \"#utility.yul\":1127:1149   */\n      mstore\n        /* \"#utility.yul\":917:1155   */\n      pop\n        /* \"#utility.yul\":874:1155   */\n      pop\n      pop\n      jump\t// out\n        /* \"#utility.yul\":1161:1290   */\n    tag_39:\n        /* \"#utility.yul\":1195:1201   */\n      0x00\n        /* \"#utility.yul\":1222:1242   */\n      tag_83\n      tag_31\n      jump\t// in\n    tag_83:\n        /* \"#utility.yul\":1212:1242   */\n      swap1\n      pop\n        /* \"#utility.yul\":1251:1284   */\n      tag_84\n        /* \"#utility.yul\":1279:1283   */\n      dup3\n        /* \"#utility.yul\":1271:1277   */\n      dup3\n        /* \"#utility.yul\":1251:1284   */\n      tag_38\n      jump\t// in\n    tag_84:\n        /* \"#utility.yul\":1161:1290   */\n      swap2\n      swap1\n      pop\n      jump\t// out\n        /* \"#utility.yul\":1296:1604   */\n    tag_40:\n        /* \"#utility.yul\":1358:1362   */\n      0x00\n        /* \"#utility.yul\":1448:1466   */\n      0xffffffffffffffff\n        /* \"#utility.yul\":1440:1446   */\n      dup3\n        /* \"#utility.yul\":1437:1467   */\n      gt\n        /* \"#utility.yul\":1434:1490   */\n      iszero\n      tag_86\n      jumpi\n        /* \"#utility.yul\":1470:1488   */\n      tag_87\n      tag_37\n      jump\t// in\n    tag_87:\n        /* \"#utility.yul\":1434:1490   */\n    tag_86:\n        /* \"#utility.yul\":1508:1537   */\n      tag_88\n        /* \"#utility.yul\":1530:1536   */\n      dup3\n        /* \"#utility.yul\":1508:1537   */\n      tag_36\n      jump\t// in\n    tag_88:\n        /* \"#utility.yul\":1500:1537   */\n      swap1\n      pop\n        /* \"#utility.yul\":1592:1596   */\n      0x20\n        /* \"#utility.yul\":1586:1590   */\n      dup2\n        /* \"#utility.yul\":1582:1597   */\n      add\n        /* \"#utility.yul\":1574:1597   */\n      swap1\n      pop\n        /* \"#utility.yul\":1296:1604   */\n      swap2\n      swap1\n      pop\n      jump\t// out\n        /* \"#utility.yul\":1610:1758   */\n    tag_41:\n        /* \"#utility.yul\":1708:1714   */\n      dup3\n        /* \"#utility.yul\":1703:1706   */\n      dup2\n        /* \"#utility.yul\":1698:1701   */\n      dup4\n        /* \"#utility.yul\":1685:1715   */\n      calldatacopy\n        /* \"#utility.yul\":1749:1750   */\n      0x00\n        /* \"#utility.yul\":1740:1746   */\n      dup4\n        /* \"#utility.yul\":1735:1738   */\n      dup4\n        /* \"#utility.yul\":1731:1747   */\n      add\n        /* \"#utility.yul\":1724:1751   */\n      mstore\n        /* \"#utility.yul\":1610:1758   */\n      pop\n      pop\n      pop\n      jump\t// out\n        /* \"#utility.yul\":1764:2189   */\n    tag_42:\n        /* \"#utility.yul\":1842:1847   */\n      0x00\n        /* \"#utility.yul\":1867:1933   */\n      tag_91\n        /* \"#utility.yul\":1883:1932   */\n      tag_92\n        /* \"#utility.yul\":1925:1931   */\n      dup5\n        /* \"#utility.yul\":1883:1932   */\n      tag_40\n      jump\t// in\n    tag_92:\n        /* \"#utility.yul\":1867:1933   */\n      tag_39\n      jump\t// in\n    tag_91:\n        /* \"#utility.yul\":1858:1933   */\n      swap1\n      pop\n        /* \"#utility.yul\":1956:1962   */\n      dup3\n        /* \"#utility.yul\":1949:1954   */\n      dup2\n        /* \"#utility.yul\":1942:1963   */\n      mstore\n        /* \"#utility.yul\":1994:1998   */\n      0x20\n        /* \"#utility.yul\":1987:1992   */\n      dup2\n        /* \"#utility.yul\":1983:1999   */\n      add\n        /* \"#utility.yul\":2032:2035   */\n      dup5\n        /* \"#utility.yul\":2023:2029   */\n      dup5\n        /* \"#utility.yul\":2018:2021   */\n      dup5\n        /* \"#utility.yul\":2014:2030   */\n      add\n        /* \"#utility.yul\":2011:2036   */\n      gt\n        /* \"#utility.yul\":2008:2120   */\n      iszero\n      tag_93\n      jumpi\n        /* \"#utility.yul\":2039:2118   */\n      tag_94\n      tag_35\n      jump\t// in\n    tag_94:\n        /* \"#utility.yul\":2008:2120   */\n    tag_93:\n        /* \"#utility.yul\":2129:2183   */\n      tag_95\n        /* \"#utility.yul\":2176:2182   */\n      dup5\n        /* \"#utility.yul\":2171:2174   */\n      dup3\n        /* \"#utility.yul\":2166:2169   */\n      dup6\n        /* \"#utility.yul\":2129:2183   */\n      tag_41\n      jump\t// in\n    tag_95:\n        /* \"#utility.yul\":1848:2189   */\n      pop\n        /* \"#utility.yul\":1764:2189   */\n      swap4\n      swap3\n      pop\n      pop\n      pop\n      jump\t// out\n        /* \"#utility.yul\":2209:2549   */\n    tag_43:\n        /* \"#utility.yul\":2265:2270   */\n      0x00\n        /* \"#utility.yul\":2314:2317   */\n      dup3\n        /* \"#utility.yul\":2307:2311   */\n      0x1f\n        /* \"#utility.yul\":2299:2305   */\n      dup4\n        /* \"#utility.yul\":2295:2312   */\n      add\n        /* \"#utility.yul\":2291:2318   */\n      slt\n        /* \"#utility.yul\":2281:2403   */\n      tag_97\n      jumpi\n        /* \"#utility.yul\":2322:2401   */\n      tag_98\n      tag_34\n      jump\t// in\n    tag_98:\n        /* \"#utility.yul\":2281:2403   */\n    tag_97:\n        /* \"#utility.yul\":2439:2445   */\n      dup2\n        /* \"#utility.yul\":2426:2446   */\n      calldataload\n        /* \"#utility.yul\":2464:2543   */\n      tag_99\n        /* \"#utility.yul\":2539:2542   */\n      dup5\n        /* \"#utility.yul\":2531:2537   */\n      dup3\n        /* \"#utility.yul\":2524:2528   */\n      0x20\n        /* \"#utility.yul\":2516:2522   */\n      dup7\n        /* \"#utility.yul\":2512:2529   */\n      add\n        /* \"#utility.yul\":2464:2543   */\n      tag_42\n      jump\t// in\n    tag_99:\n        /* \"#utility.yul\":2455:2543   */\n      swap2\n      pop\n        /* \"#utility.yul\":2271:2549   */\n      pop\n        /* \"#utility.yul\":2209:2549   */\n      swap3\n      swap2\n      pop\n      pop\n      jump\t// out\n        /* \"#utility.yul\":2555:3064   */\n    tag_8:\n        /* \"#utility.yul\":2624:2630   */\n      0x00\n        /* \"#utility.yul\":2673:2675   */\n      0x20\n        /* \"#utility.yul\":2661:2670   */\n      dup3\n        /* \"#utility.yul\":2652:2659   */\n      dup5\n        /* \"#utility.yul\":2648:2671   */\n      sub\n        /* \"#utility.yul\":2644:2676   */\n      slt\n        /* \"#utility.yul\":2641:2760   */\n      iszero\n      tag_101\n      jumpi\n        /* \"#utility.yul\":2679:2758   */\n      tag_102\n      tag_32\n      jump\t// in\n    tag_102:\n        /* \"#utility.yul\":2641:2760   */\n    tag_101:\n        /* \"#utility.yul\":2827:2828   */\n      0x00\n        /* \"#utility.yul\":2816:2825   */\n      dup3\n        /* \"#utility.yul\":2812:2829   */\n      add\n        /* \"#utility.yul\":2799:2830   */\n      calldataload\n        /* \"#utility.yul\":2857:2875   */\n      0xffffffffffffffff\n        /* \"#utility.yul\":2849:2855   */\n      dup2\n        /* \"#utility.yul\":2846:2876   */\n      gt\n        /* \"#utility.yul\":2843:2960   */\n      iszero\n      tag_103\n      jumpi\n        /* \"#utility.yul\":2879:2958   */\n      tag_104\n      tag_33\n      jump\t// in\n    tag_104:\n        /* \"#utility.yul\":2843:2960   */\n    tag_103:\n        /* \"#utility.yul\":2984:3047   */\n      tag_105\n        /* \"#utility.yul\":3039:3046   */\n      dup5\n        /* \"#utility.yul\":3030:3036   */\n      dup3\n        /* \"#utility.yul\":3019:3028   */\n      dup6\n        /* \"#utility.yul\":3015:3037   */\n      add\n        /* \"#utility.yul\":2984:3047   */\n      tag_43\n      jump\t// in\n    tag_105:\n        /* \"#utility.yul\":2974:3047   */\n      swap2\n      pop\n        /* \"#utility.yul\":2770:3057   */\n      pop\n        /* \"#utility.yul\":2555:3064   */\n      swap3\n      swap2\n      pop\n      pop\n      jump\t// out\n        /* \"#utility.yul\":3070:3196   */\n    tag_44:\n        /* \"#utility.yul\":3107:3114   */\n      0x00\n        /* \"#utility.yul\":3147:3189   */\n      0xffffffffffffffffffffffffffffffffffffffff\n        /* \"#utility.yul\":3140:3145   */\n      dup3\n        /* \"#utility.yul\":3136:3190   */\n      and\n        /* \"#utility.yul\":3125:3190   */\n      swap1\n      pop\n        /* \"#utility.yul\":3070:3196   */\n      swap2\n      swap1\n      pop\n      jump\t// out\n        /* \"#utility.yul\":3202:3298   */\n    tag_45:\n        /* \"#utility.yul\":3239:3246   */\n      0x00\n        /* \"#utility.yul\":3268:3292   */\n      tag_108\n        /* \"#utility.yul\":3286:3291   */\n      dup3\n        /* \"#utility.yul\":3268:3292   */\n      tag_44\n      jump\t// in\n    tag_108:\n        /* \"#utility.yul\":3257:3292   */\n      swap1\n      pop\n        /* \"#utility.yul\":3202:3298   */\n      swap2\n      swap1\n      pop\n      jump\t// out\n        /* \"#utility.yul\":3304:3422   */\n    tag_46:\n        /* \"#utility.yul\":3391:3415   */\n      tag_110\n        /* \"#utility.yul\":3409:3414   */\n      dup2\n        /* \"#utility.yul\":3391:3415   */\n      tag_45\n      jump\t// in\n    tag_110:\n        /* \"#utility.yul\":3386:3389   */\n      dup3\n        /* \"#utility.yul\":3379:3416   */\n      mstore\n        /* \"#utility.yul\":3304:3422   */\n      pop\n      pop\n      jump\t// out\n        /* \"#utility.yul\":3428:3650   */\n    tag_13:\n        /* \"#utility.yul\":3521:3525   */\n      0x00\n        /* \"#utility.yul\":3559:3561   */\n      0x20\n        /* \"#utility.yul\":3548:3557   */\n      dup3\n        /* \"#utility.yul\":3544:3562   */\n      add\n        /* \"#utility.yul\":3536:3562   */\n      swap1\n      pop\n        /* \"#utility.yul\":3572:3643   */\n      tag_112\n        /* \"#utility.yul\":3640:3641   */\n      0x00\n        /* \"#utility.yul\":3629:3638   */\n      dup4\n        /* \"#utility.yul\":3625:3642   */\n      add\n        /* \"#utility.yul\":3616:3622   */\n      dup5\n        /* \"#utility.yul\":3572:3643   */\n      tag_46\n      jump\t// in\n    tag_112:\n        /* \"#utility.yul\":3428:3650   */\n      swap3\n      swap2\n      pop\n      pop\n      jump\t// out\n        /* \"#utility.yul\":3656:3755   */\n    tag_47:\n        /* \"#utility.yul\":3708:3714   */\n      0x00\n        /* \"#utility.yul\":3742:3747   */\n      dup2\n        /* \"#utility.yul\":3736:3748   */\n      mload\n        /* \"#utility.yul\":3726:3748   */\n      swap1\n      pop\n        /* \"#utility.yul\":3656:3755   */\n      swap2\n      swap1\n      pop\n      jump\t// out\n        /* \"#utility.yul\":3761:3930   */\n    tag_48:\n        /* \"#utility.yul\":3845:3856   */\n      0x00\n        /* \"#utility.yul\":3879:3885   */\n      dup3\n        /* \"#utility.yul\":3874:3877   */\n      dup3\n        /* \"#utility.yul\":3867:3886   */\n      mstore\n        /* \"#utility.yul\":3919:3923   */\n      0x20\n        /* \"#utility.yul\":3914:3917   */\n      dup3\n        /* \"#utility.yul\":3910:3924   */\n      add\n        /* \"#utility.yul\":3895:3924   */\n      swap1\n      pop\n        /* \"#utility.yul\":3761:3930   */\n      swap3\n      swap2\n      pop\n      pop\n      jump\t// out\n        /* \"#utility.yul\":3936:4075   */\n    tag_49:\n        /* \"#utility.yul\":4025:4031   */\n      dup3\n        /* \"#utility.yul\":4020:4023   */\n      dup2\n        /* \"#utility.yul\":4015:4018   */\n      dup4\n        /* \"#utility.yul\":4009:4032   */\n      mcopy\n        /* \"#utility.yul\":4066:4067   */\n      0x00\n        /* \"#utility.yul\":4057:4063   */\n      dup4\n        /* \"#utility.yul\":4052:4055   */\n      dup4\n        /* \"#utility.yul\":4048:4064   */\n      add\n        /* \"#utility.yul\":4041:4068   */\n      mstore\n        /* \"#utility.yul\":3936:4075   */\n      pop\n      pop\n      pop\n      jump\t// out\n        /* \"#utility.yul\":4081:4458   */\n    tag_50:\n        /* \"#utility.yul\":4169:4172   */\n      0x00\n        /* \"#utility.yul\":4197:4236   */\n      tag_117\n        /* \"#utility.yul\":4230:4235   */\n      dup3\n        /* \"#utility.yul\":4197:4236   */\n      tag_47\n      jump\t// in\n    tag_117:\n        /* \"#utility.yul\":4252:4323   */\n      tag_118\n        /* \"#utility.yul\":4316:4322   */\n      dup2\n        /* \"#utility.yul\":4311:4314   */\n      dup6\n        /* \"#utility.yul\":4252:4323   */\n      tag_48\n      jump\t// in\n    tag_118:\n        /* \"#utility.yul\":4245:4323   */\n      swap4\n      pop\n        /* \"#utility.yul\":4332:4397   */\n      tag_119\n        /* \"#utility.yul\":4390:4396   */\n      dup2\n        /* \"#utility.yul\":4385:4388   */\n      dup6\n        /* \"#utility.yul\":4378:4382   */\n      0x20\n        /* \"#utility.yul\":4371:4376   */\n      dup7\n        /* \"#utility.yul\":4367:4383   */\n      add\n        /* \"#utility.yul\":4332:4397   */\n      tag_49\n      jump\t// in\n    tag_119:\n        /* \"#utility.yul\":4422:4451   */\n      tag_120\n        /* \"#utility.yul\":4444:4450   */\n      dup2\n        /* \"#utility.yul\":4422:4451   */\n      tag_36\n      jump\t// in\n    tag_120:\n        /* \"#utility.yul\":4417:4420   */\n      dup5\n        /* \"#utility.yul\":4413:4452   */\n      add\n        /* \"#utility.yul\":4406:4452   */\n      swap2\n      pop\n        /* \"#utility.yul\":4173:4458   */\n      pop\n        /* \"#utility.yul\":4081:4458   */\n      swap3\n      swap2\n      pop\n      pop\n      jump\t// out\n        /* \"#utility.yul\":4464:4777   */\n    tag_17:\n        /* \"#utility.yul\":4577:4581   */\n      0x00\n        /* \"#utility.yul\":4615:4617   */\n      0x20\n        /* \"#utility.yul\":4604:4613   */\n      dup3\n        /* \"#utility.yul\":4600:4618   */\n      add\n        /* \"#utility.yul\":4592:4618   */\n      swap1\n      pop\n        /* \"#utility.yul\":4664:4673   */\n      dup2\n        /* \"#utility.yul\":4658:4662   */\n      dup2\n        /* \"#utility.yul\":4654:4674   */\n      sub\n        /* \"#utility.yul\":4650:4651   */\n      0x00\n        /* \"#utility.yul\":4639:4648   */\n      dup4\n        /* \"#utility.yul\":4635:4652   */\n      add\n        /* \"#utility.yul\":4628:4675   */\n      mstore\n        /* \"#utility.yul\":4692:4770   */\n      tag_122\n        /* \"#utility.yul\":4765:4769   */\n      dup2\n        /* \"#utility.yul\":4756:4762   */\n      dup5\n        /* \"#utility.yul\":4692:4770   */\n      tag_50\n      jump\t// in\n    tag_122:\n        /* \"#utility.yul\":4684:4770   */\n      swap1\n      pop\n        /* \"#utility.yul\":4464:4777   */\n      swap3\n      swap2\n      pop\n      pop\n      jump\t// out\n        /* \"#utility.yul\":4783:4942   */\n    tag_51:\n        /* \"#utility.yul\":4923:4934   */\n      0x4e6f74206f776e65720000000000000000000000000000000000000000000000\n        /* \"#utility.yul\":4919:4920   */\n      0x00\n        /* \"#utility.yul\":4911:4917   */\n      dup3\n        /* \"#utility.yul\":4907:4921   */\n      add\n        /* \"#utility.yul\":4900:4935   */\n      mstore\n        /* \"#utility.yul\":4783:4942   */\n      pop\n      jump\t// out\n        /* \"#utility.yul\":4948:5313   */\n    tag_52:\n        /* \"#utility.yul\":5090:5093   */\n      0x00\n        /* \"#utility.yul\":5111:5177   */\n      tag_125\n        /* \"#utility.yul\":5175:5176   */\n      0x09\n        /* \"#utility.yul\":5170:5173   */\n      dup4\n        /* \"#utility.yul\":5111:5177   */\n      tag_48\n      jump\t// in\n    tag_125:\n        /* \"#utility.yul\":5104:5177   */\n      swap2\n      pop\n        /* \"#utility.yul\":5186:5279   */\n      tag_126\n        /* \"#utility.yul\":5275:5278   */\n      dup3\n        /* \"#utility.yul\":5186:5279   */\n      tag_51\n      jump\t// in\n    tag_126:\n        /* \"#utility.yul\":5304:5306   */\n      0x20\n        /* \"#utility.yul\":5299:5302   */\n      dup3\n        /* \"#utility.yul\":5295:5307   */\n      add\n        /* \"#utility.yul\":5288:5307   */\n      swap1\n      pop\n        /* \"#utility.yul\":4948:5313   */\n      swap2\n      swap1\n      pop\n      jump\t// out\n        /* \"#utility.yul\":5319:5738   */\n    tag_21:\n        /* \"#utility.yul\":5485:5489   */\n      0x00\n        /* \"#utility.yul\":5523:5525   */\n      0x20\n        /* \"#utility.yul\":5512:5521   */\n      dup3\n        /* \"#utility.yul\":5508:5526   */\n      add\n        /* \"#utility.yul\":5500:5526   */\n      swap1\n      pop\n        /* \"#utility.yul\":5572:5581   */\n      dup2\n        /* \"#utility.yul\":5566:5570   */\n      dup2\n        /* \"#utility.yul\":5562:5582   */\n      sub\n        /* \"#utility.yul\":5558:5559   */\n      0x00\n        /* \"#utility.yul\":5547:5556   */\n      dup4\n        /* \"#utility.yul\":5543:5560   */\n      add\n        /* \"#utility.yul\":5536:5583   */\n      mstore\n        /* \"#utility.yul\":5600:5731   */\n      tag_128\n        /* \"#utility.yul\":5726:5730   */\n      dup2\n        /* \"#utility.yul\":5600:5731   */\n      tag_52\n      jump\t// in\n    tag_128:\n        /* \"#utility.yul\":5592:5731   */\n      swap1\n      pop\n        /* \"#utility.yul\":5319:5738   */\n      swap2\n      swap1\n      pop\n      jump\t// out\n        /* \"#utility.yul\":5744:5924   */\n    tag_53:\n        /* \"#utility.yul\":5792:5869   */\n      0x4e487b7100000000000000000000000000000000000000000000000000000000\n        /* \"#utility.yul\":5789:5790   */\n      0x00\n        /* \"#utility.yul\":5782:5870   */\n      mstore\n        /* \"#utility.yul\":5889:5893   */\n      0x22\n        /* \"#utility.yul\":5886:5887   */\n      0x04\n        /* \"#utility.yul\":5879:5894   */\n      mstore\n        /* \"#utility.yul\":5913:5917   */\n      0x24\n        /* \"#utility.yul\":5910:5911   */\n      0x00\n        /* \"#utility.yul\":5903:5918   */\n      revert\n        /* \"#utility.yul\":5930:6250   */\n    tag_26:\n        /* \"#utility.yul\":5974:5980   */\n      0x00\n        /* \"#utility.yul\":6011:6012   */\n      0x02\n        /* \"#utility.yul\":6005:6009   */\n      dup3\n        /* \"#utility.yul\":6001:6013   */\n      div\n        /* \"#utility.yul\":5991:6013   */\n      swap1\n      pop\n        /* \"#utility.yul\":6058:6059   */\n      0x01\n        /* \"#utility.yul\":6052:6056   */\n      dup3\n        /* \"#utility.yul\":6048:6060   */\n      and\n        /* \"#utility.yul\":6079:6097   */\n      dup1\n        /* \"#utility.yul\":6069:6150   */\n      tag_131\n      jumpi\n        /* \"#utility.yul\":6135:6139   */\n      0x7f\n        /* \"#utility.yul\":6127:6133   */\n      dup3\n        /* \"#utility.yul\":6123:6140   */\n      and\n        /* \"#utility.yul\":6113:6140   */\n      swap2\n      pop\n        /* \"#utility.yul\":6069:6150   */\n    tag_131:\n        /* \"#utility.yul\":6197:6199   */\n      0x20\n        /* \"#utility.yul\":6189:6195   */\n      dup3\n        /* \"#utility.yul\":6186:6200   */\n      lt\n        /* \"#utility.yul\":6166:6184   */\n      dup2\n        /* \"#utility.yul\":6163:6201   */\n      sub\n        /* \"#utility.yul\":6160:6244   */\n      tag_132\n      jumpi\n        /* \"#utility.yul\":6216:6234   */\n      tag_133\n      tag_53\n      jump\t// in\n    tag_133:\n        /* \"#utility.yul\":6160:6244   */\n    tag_132:\n        /* \"#utility.yul\":5981:6250   */\n      pop\n        /* \"#utility.yul\":5930:6250   */\n      swap2\n      swap1\n      pop\n      jump\t// out\n        /* \"#utility.yul\":6256:6397   */\n    tag_54:\n        /* \"#utility.yul\":6305:6309   */\n      0x00\n        /* \"#utility.yul\":6328:6331   */\n      dup2\n        /* \"#utility.yul\":6320:6331   */\n      swap1\n      pop\n        /* \"#utility.yul\":6351:6354   */\n      dup2\n        /* \"#utility.yul\":6348:6349   */\n      0x00\n        /* \"#utility.yul\":6341:6355   */\n      mstore\n        /* \"#utility.yul\":6385:6389   */\n      0x20\n        /* \"#utility.yul\":6382:6383   */\n      0x00\n        /* \"#utility.yul\":6372:6390   */\n      keccak256\n        /* \"#utility.yul\":6364:6390   */\n      swap1\n      pop\n        /* \"#utility.yul\":6256:6397   */\n      swap2\n      swap1\n      pop\n      jump\t// out\n        /* \"#utility.yul\":6403:6496   */\n    tag_55:\n        /* \"#utility.yul\":6440:6446   */\n      0x00\n        /* \"#utility.yul\":6487:6489   */\n      0x20\n        /* \"#utility.yul\":6482:6484   */\n      0x1f\n        /* \"#utility.yul\":6475:6480   */\n      dup4\n        /* \"#utility.yul\":6471:6485   */\n      add\n        /* \"#utility.yul\":6467:6490   */\n      div\n        /* \"#utility.yul\":6457:6490   */\n      swap1\n      pop\n        /* \"#utility.yul\":6403:6496   */\n      swap2\n      swap1\n      pop\n      jump\t// out\n        /* \"#utility.yul\":6502:6609   */\n    tag_56:\n        /* \"#utility.yul\":6546:6554   */\n      0x00\n        /* \"#utility.yul\":6596:6601   */\n      dup3\n        /* \"#utility.yul\":6590:6594   */\n      dup3\n        /* \"#utility.yul\":6586:6602   */\n      shl\n        /* \"#utility.yul\":6565:6602   */\n      swap1\n      pop\n        /* \"#utility.yul\":6502:6609   */\n      swap3\n      swap2\n      pop\n      pop\n      jump\t// out\n        /* \"#utility.yul\":6615:7008   */\n    tag_57:\n        /* \"#utility.yul\":6684:6690   */\n      0x00\n        /* \"#utility.yul\":6734:6735   */\n      0x08\n        /* \"#utility.yul\":6722:6732   */\n      dup4\n        /* \"#utility.yul\":6718:6736   */\n      mul\n        /* \"#utility.yul\":6757:6854   */\n      tag_138\n        /* \"#utility.yul\":6787:6853   */\n      0xffffffffffffffffffffffffffffffffffffffffffffffffffffffffffffffff\n        /* \"#utility.yul\":6776:6785   */\n      dup3\n        /* \"#utility.yul\":6757:6854   */\n      tag_56\n      jump\t// in\n    tag_138:\n        /* \"#utility.yul\":6875:6914   */\n      tag_139\n        /* \"#utility.yul\":6905:6913   */\n      dup7\n        /* \"#utility.yul\":6894:6903   */\n      dup4\n        /* \"#utility.yul\":6875:6914   */\n      tag_56\n      jump\t// in\n    tag_139:\n        /* \"#utility.yul\":6863:6914   */\n      swap6\n      pop\n        /* \"#utility.yul\":6947:6951   */\n      dup1\n        /* \"#utility.yul\":6943:6952   */\n      not\n        /* \"#utility.yul\":6936:6941   */\n      dup5\n        /* \"#utility.yul\":6932:6953   */\n      and\n        /* \"#utility.yul\":6923:6953   */\n      swap4\n      pop\n        /* \"#utility.yul\":6996:7000   */\n      dup1\n        /* \"#utility.yul\":6986:6994   */\n      dup7\n        /* \"#utility.yul\":6982:7001   */\n      and\n        /* \"#utility.yul\":6975:6980   */\n      dup5\n        /* \"#utility.yul\":6972:7002   */\n      or\n        /* \"#utility.yul\":6962:7002   */\n      swap3\n      pop\n        /* \"#utility.yul\":6691:7008   */\n      pop\n      pop\n        /* \"#utility.yul\":6615:7008   */\n      swap4\n      swap3\n      pop\n      pop\n      pop\n      jump\t// out\n        /* \"#utility.yul\":7014:7091   */\n    tag_58:\n        /* \"#utility.yul\":7051:7058   */\n      0x00\n        /* \"#utility.yul\":7080:7085   */\n      dup2\n        /* \"#utility.yul\":7069:7085   */\n      swap1\n      pop\n        /* \"#utility.yul\":7014:7091   */\n      swap2\n      swap1\n      pop\n      jump\t// out\n        /* \"#utility.yul\":7097:7157   */\n    tag_59:\n        /* \"#utility.yul\":7125:7128   */\n      0x00\n        /* \"#utility.yul\":7146:7151   */\n      dup2\n        /* \"#utility.yul\":7139:7151   */\n      swap1\n      pop\n        /* \"#utility.yul\":7097:7157   */\n      swap2\n      swap1\n      pop\n      jump\t// out\n        /* \"#utility.yul\":7163:7305   */\n    tag_60:\n        /* \"#utility.yul\":7213:7222   */\n      0x00\n        /* \"#utility.yul\":7246:7299   */\n      tag_143\n        /* \"#utility.yul\":7264:7298   */\n      tag_144\n        /* \"#utility.yul\":7273:7297   */\n      tag_145\n        /* \"#utility.yul\":7291:7296   */\n      dup5\n        /* \"#utility.yul\":7273:7297   */\n      tag_58\n      jump\t// in\n    tag_145:\n        /* \"#utility.yul\":7264:7298   */\n      tag_59\n      jump\t// in\n    tag_144:\n        /* \"#utility.yul\":7246:7299   */\n      tag_58\n      jump\t// in\n    tag_143:\n        /* \"#utility.yul\":7233:7299   */\n      swap1\n      pop\n        /* \"#utility.yul\":7163:7305   */\n      swap2\n      swap1\n      pop\n      jump\t// out\n        /* \"#utility.yul\":7311:7386   */\n    tag_61:\n        /* \"#utility.yul\":7354:7357   */\n      0x00\n        /* \"#utility.yul\":7375:7380   */\n      dup2\n        /* \"#utility.yul\":7368:7380   */\n      swap1\n      pop\n        /* \"#utility.yul\":7311:7386   */\n      swap2\n      swap1\n      pop\n      jump\t// out\n        /* \"#utility.yul\":7392:7661   */\n    tag_62:\n        /* \"#utility.yul\":7502:7541   */\n      tag_148\n        /* \"#utility.yul\":7533:7540   */\n      dup4\n        /* \"#utility.yul\":7502:7541   */\n      tag_60\n      jump\t// in\n    tag_148:\n        /* \"#utility.yul\":7563:7654   */\n      tag_149\n        /* \"#utility.yul\":7612:7653   */\n      tag_150\n        /* \"#utility.yul\":7636:7652   */\n      dup3\n        /* \"#utility.yul\":7612:7653   */\n      tag_61\n      jump\t// in\n    tag_150:\n        /* \"#utility.yul\":7604:7610   */\n      dup5\n        /* \"#utility.yul\":7597:7601   */\n      dup5\n        /* \"#utility.yul\":7591:7602   */\n      sload\n        /* \"#utility.yul\":7563:7654   */\n      tag_57\n      jump\t// in\n    tag_149:\n        /* \"#utility.yul\":7557:7561   */\n      dup3\n        /* \"#utility.yul\":7550:7655   */\n      sstore\n        /* \"#utility.yul\":7468:7661   */\n      pop\n        /* \"#utility.yul\":7392:7661   */\n      pop\n      pop\n      pop\n      jump\t// out\n        /* \"#utility.yul\":7667:7740   */\n    tag_63:\n        /* \"#utility.yul\":7712:7715   */\n      0x00\n        /* \"#utility.yul\":7733:7734   */\n      0x00\n        /* \"#utility.yul\":7726:7734   */\n      swap1\n      pop\n        /* \"#utility.yul\":7667:7740   */\n      swap1\n      jump\t// out\n        /* \"#utility.yul\":7746:7935   */\n    tag_64:\n        /* \"#utility.yul\":7823:7855   */\n      tag_153\n      tag_63\n      jump\t// in\n    tag_153:\n        /* \"#utility.yul\":7864:7929   */\n      tag_154\n        /* \"#utility.yul\":7922:7928   */\n      dup2\n        /* \"#utility.yul\":7914:7920   */\n      dup5\n        /* \"#utility.yul\":7908:7912   */\n      dup5\n        /* \"#utility.yul\":7864:7929   */\n      tag_62\n      jump\t// in\n    tag_154:\n        /* \"#utility.yul\":7799:7935   */\n      pop\n        /* \"#utility.yul\":7746:7935   */\n      pop\n      pop\n      jump\t// out\n        /* \"#utility.yul\":7941:8127   */\n    tag_65:\n        /* \"#utility.yul\":8001:8121   */\n    tag_156:\n        /* \"#utility.yul\":8018:8021   */\n      dup2\n        /* \"#utility.yul\":8011:8016   */\n      dup2\n        /* \"#utility.yul\":8008:8022   */\n      lt\n        /* \"#utility.yul\":8001:8121   */\n      iszero\n      tag_158\n      jumpi\n        /* \"#utility.yul\":8072:8111   */\n      tag_159\n        /* \"#utility.yul\":8109:8110   */\n      0x00\n        /* \"#utility.yul\":8102:8107   */\n      dup3\n        /* \"#utility.yul\":8072:8111   */\n      tag_64\n      jump\t// in\n    tag_159:\n        /* \"#utility.yul\":8045:8046   */\n      0x01\n        /* \"#utility.yul\":8038:8043   */\n      dup2\n        /* \"#utility.yul\":8034:8047   */\n      add\n        /* \"#utility.yul\":8025:8047   */\n      swap1\n      pop\n        /* \"#utility.yul\":8001:8121   */\n      jump(tag_156)\n    tag_158:\n        /* \"#utility.yul\":7941:8127   */\n      pop\n      pop\n      jump\t// out\n        /* \"#utility.yul\":8133:8676   */\n    tag_66:\n        /* \"#utility.yul\":8234:8236   */\n      0x1f\n        /* \"#utility.yul\":8229:8232   */\n      dup3\n        /* \"#utility.yul\":8226:8237   */\n      gt\n        /* \"#utility.yul\":8223:8669   */\n      iszero\n      tag_161\n      jumpi\n        /* \"#utility.yul\":8268:8306   */\n      tag_162\n        /* \"#utility.yul\":8300:8305   */\n      dup2\n        /* \"#utility.yul\":8268:8306   */\n      tag_54\n      jump\t// in\n    tag_162:\n        /* \"#utility.yul\":8352:8381   */\n      tag_163\n        /* \"#utility.yul\":8370:8380   */\n      dup5\n        /* \"#utility.yul\":8352:8381   */\n      tag_55\n      jump\t// in\n    tag_163:\n        /* \"#utility.yul\":8342:8350   */\n      dup2\n        /* \"#utility.yul\":8338:8382   */\n      add\n        /* \"#utility.yul\":8535:8537   */\n      0x20\n        /* \"#utility.yul\":8523:8533   */\n      dup6\n        /* \"#utility.yul\":8520:8538   */\n      lt\n        /* \"#utility.yul\":8517:8566   */\n      iszero\n      tag_164\n      jumpi\n        /* \"#utility.yul\":8556:8564   */\n      dup2\n        /* \"#utility.yul\":8541:8564   */\n      swap1\n      pop\n        /* \"#utility.yul\":8517:8566   */\n    tag_164:\n        /* \"#utility.yul\":8579:8659   */\n      tag_165\n        /* \"#utility.yul\":8635:8657   */\n      tag_166\n        /* \"#utility.yul\":8653:8656   */\n      dup6\n        /* \"#utility.yul\":8635:8657   */\n      tag_55\n      jump\t// in\n    tag_166:\n        /* \"#utility.yul\":8625:8633   */\n      dup4\n        /* \"#utility.yul\":8621:8658   */\n      add\n        /* \"#utility.yul\":8608:8619   */\n      dup3\n        /* \"#utility.yul\":8579:8659   */\n      tag_65\n      jump\t// in\n    tag_165:\n        /* \"#utility.yul\":8238:8669   */\n      pop\n      pop\n        /* \"#utility.yul\":8223:8669   */\n    tag_161:\n        /* \"#utility.yul\":8133:8676   */\n      pop\n      pop\n      pop\n      jump\t// out\n        /* \"#utility.yul\":8682:8799   */\n    tag_67:\n        /* \"#utility.yul\":8736:8744   */\n      0x00\n        /* \"#utility.yul\":8786:8791   */\n      dup3\n        /* \"#utility.yul\":8780:8784   */\n      dup3\n        /* \"#utility.yul\":8776:8792   */\n      shr\n        /* \"#utility.yul\":8755:8792   */\n      swap1\n      pop\n        /* \"#utility.yul\":8682:8799   */\n      swap3\n      swap2\n      pop\n      pop\n      jump\t// out\n        /* \"#utility.yul\":8805:8974   */\n    tag_68:\n        /* \"#utility.yul\":8849:8855   */\n      0x00\n        /* \"#utility.yul\":8882:8933   */\n      tag_169\n        /* \"#utility.yul\":8930:8931   */\n      0x00\n        /* \"#utility.yul\":8926:8932   */\n      not\n        /* \"#utility.yul\":8918:8923   */\n      dup5\n        /* \"#utility.yul\":8915:8916   */\n      0x08\n        /* \"#utility.yul\":8911:8924   */\n      mul\n        /* \"#utility.yul\":8882:8933   */\n      tag_67\n      jump\t// in\n    tag_169:\n        /* \"#utility.yul\":8878:8934   */\n      not\n        /* \"#utility.yul\":8963:8967   */\n      dup1\n        /* \"#utility.yul\":8957:8961   */\n      dup4\n        /* \"#utility.yul\":8953:8968   */\n      and\n        /* \"#utility.yul\":8943:8968   */\n      swap2\n      pop\n        /* \"#utility.yul\":8856:8974   */\n      pop\n        /* \"#utility.yul\":8805:8974   */\n      swap3\n      swap2\n      pop\n      pop\n      jump\t// out\n        /* \"#utility.yul\":8979:9274   */\n    tag_69:\n        /* \"#utility.yul\":9055:9059   */\n      0x00\n        /* \"#utility.yul\":9201:9230   */\n      tag_171\n        /* \"#utility.yul\":9226:9229   */\n      dup4\n        /* \"#utility.yul\":9220:9224   */\n      dup4\n        /* \"#utility.yul\":9201:9230   */\n      tag_68\n      jump\t// in\n    tag_171:\n        /* \"#utility.yul\":9193:9230   */\n      swap2\n      pop\n        /* \"#utility.yul\":9263:9266   */\n      dup3\n        /* \"#utility.yul\":9260:9261   */\n      0x02\n        /* \"#utility.yul\":9256:9267   */\n      mul\n        /* \"#utility.yul\":9250:9254   */\n      dup3\n        /* \"#utility.yul\":9247:9268   */\n      or\n        /* \"#utility.yul\":9239:9268   */\n      swap1\n      pop\n        /* \"#utility.yul\":8979:9274   */\n      swap3\n      swap2\n      pop\n      pop\n      jump\t// out\n        /* \"#utility.yul\":9279:10674   */\n    tag_24:\n        /* \"#utility.yul\":9396:9433   */\n      tag_173\n        /* \"#utility.yul\":9429:9432   */\n      dup3\n        /* \"#utility.yul\":9396:9433   */\n      tag_47\n      jump\t// in\n    tag_173:\n        /* \"#utility.yul\":9498:9516   */\n      0xffffffffffffffff\n        /* \"#utility.yul\":9490:9496   */\n      dup2\n        /* \"#utility.yul\":9487:9517   */\n      gt\n        /* \"#utility.yul\":9484:9540   */\n      iszero\n      tag_174\n      jumpi\n        /* \"#utility.yul\":9520:9538   */\n      tag_175\n      tag_37\n      jump\t// in\n    tag_175:\n        /* \"#utility.yul\":9484:9540   */\n    tag_174:\n        /* \"#utility.yul\":9564:9602   */\n      tag_176\n        /* \"#utility.yul\":9596:9600   */\n      dup3\n        /* \"#utility.yul\":9590:9601   */\n      sload\n        /* \"#utility.yul\":9564:9602   */\n      tag_26\n      jump\t// in\n    tag_176:\n        /* \"#utility.yul\":9649:9716   */\n      tag_177\n        /* \"#utility.yul\":9709:9715   */\n      dup3\n        /* \"#utility.yul\":9701:9707   */\n      dup3\n        /* \"#utility.yul\":9695:9699   */\n      dup6\n        /* \"#utility.yul\":9649:9716   */\n      tag_66\n      jump\t// in\n    tag_177:\n        /* \"#utility.yul\":9743:9744   */\n      0x00\n        /* \"#utility.yul\":9767:9771   */\n      0x20\n        /* \"#utility.yul\":9754:9771   */\n      swap1\n      pop\n        /* \"#utility.yul\":9799:9801   */\n      0x1f\n        /* \"#utility.yul\":9791:9797   */\n      dup4\n        /* \"#utility.yul\":9788:9802   */\n      gt\n        /* \"#utility.yul\":9816:9817   */\n      0x01\n        /* \"#utility.yul\":9811:10429   */\n      dup2\n      eq\n      tag_179\n      jumpi\n        /* \"#utility.yul\":10473:10474   */\n      0x00\n        /* \"#utility.yul\":10490:10496   */\n      dup5\n        /* \"#utility.yul\":10487:10564   */\n      iszero\n      tag_180\n      jumpi\n        /* \"#utility.yul\":10539:10548   */\n      dup3\n        /* \"#utility.yul\":10534:10537   */\n      dup8\n        /* \"#utility.yul\":10530:10549   */\n      add\n        /* \"#utility.yul\":10524:10550   */\n      mload\n        /* \"#utility.yul\":10515:10550   */\n      swap1\n      pop\n        /* \"#utility.yul\":10487:10564   */\n    tag_180:\n        /* \"#utility.yul\":10590:10657   */\n      tag_181\n        /* \"#utility.yul\":10650:10656   */\n      dup6\n        /* \"#utility.yul\":10643:10648   */\n      dup3\n        /* \"#utility.yul\":10590:10657   */\n      tag_69\n      jump\t// in\n    tag_181:\n        /* \"#utility.yul\":10584:10588   */\n      dup7\n        /* \"#utility.yul\":10577:10658   */\n      sstore\n        /* \"#utility.yul\":10446:10668   */\n      pop\n        /* \"#utility.yul\":9781:10668   */\n      jump(tag_178)\n        /* \"#utility.yul\":9811:10429   */\n    tag_179:\n        /* \"#utility.yul\":9863:9867   */\n      0x1f\n        /* \"#utility.yul\":9859:9868   */\n      not\n        /* \"#utility.yul\":9851:9857   */\n      dup5\n        /* \"#utility.yul\":9847:9869   */\n      and\n        /* \"#utility.yul\":9897:9934   */\n      tag_182\n        /* \"#utility.yul\":9929:9933   */\n      dup7\n        /* \"#utility.yul\":9897:9934   */\n      tag_54\n      jump\t// in\n    tag_182:\n        /* \"#utility.yul\":9956:9957   */\n      0x00\n        /* \"#utility.yul\":9970:10178   */\n    tag_183:\n        /* \"#utility.yul\":9984:9991   */\n      dup3\n        /* \"#utility.yul\":9981:9982   */\n      dup2\n        /* \"#utility.yul\":9978:9992   */\n      lt\n        /* \"#utility.yul\":9970:10178   */\n      iszero\n      tag_185\n      jumpi\n        /* \"#utility.yul\":10063:10072   */\n      dup5\n        /* \"#utility.yul\":10058:10061   */\n      dup10\n        /* \"#utility.yul\":10054:10073   */\n      add\n        /* \"#utility.yul\":10048:10074   */\n      mload\n        /* \"#utility.yul\":10040:10046   */\n      dup3\n        /* \"#utility.yul\":10033:10075   */\n      sstore\n        /* \"#utility.yul\":10114:10115   */\n      0x01\n        /* \"#utility.yul\":10106:10112   */\n      dup3\n        /* \"#utility.yul\":10102:10116   */\n      add\n        /* \"#utility.yul\":10092:10116   */\n      swap2\n      pop\n        /* \"#utility.yul\":10161:10163   */\n      0x20\n        /* \"#utility.yul\":10150:10159   */\n      dup6\n        /* \"#utility.yul\":10146:10164   */\n      add\n        /* \"#utility.yul\":10133:10164   */\n      swap5\n      pop\n        /* \"#utility.yul\":10007:10011   */\n      0x20\n        /* \"#utility.yul\":10004:10005   */\n      dup2\n        /* \"#utility.yul\":10000:10012   */\n      add\n        /* \"#utility.yul\":9995:10012   */\n      swap1\n      pop\n        /* \"#utility.yul\":9970:10178   */\n      jump(tag_183)\n    tag_185:\n        /* \"#utility.yul\":10206:10212   */\n      dup7\n        /* \"#utility.yul\":10197:10204   */\n      dup4\n        /* \"#utility.yul\":10194:10213   */\n      lt\n        /* \"#utility.yul\":10191:10370   */\n      iszero\n      tag_186\n      jumpi\n        /* \"#utility.yul\":10264:10273   */\n      dup5\n        /* \"#utility.yul\":10259:10262   */\n      dup10\n        /* \"#utility.yul\":10255:10274   */\n      add\n        /* \"#utility.yul\":10249:10275   */\n      mload\n        /* \"#utility.yul\":10307:10355   */\n      tag_187\n        /* \"#utility.yul\":10349:10353   */\n      0x1f\n        /* \"#utility.yul\":10341:10347   */\n      dup10\n        /* \"#utility.yul\":10337:10354   */\n      and\n        /* \"#utility.yul\":10326:10335   */\n      dup3\n        /* \"#utility.yul\":10307:10355   */\n      tag_68\n      jump\t// in\n    tag_187:\n        /* \"#utility.yul\":10299:10305   */\n      dup4\n        /* \"#utility.yul\":10292:10356   */\n      sstore\n        /* \"#utility.yul\":10214:10370   */\n      pop\n        /* \"#utility.yul\":10191:10370   */\n    tag_186:\n        /* \"#utility.yul\":10416:10417   */\n      0x01\n        /* \"#utility.yul\":10412:10413   */\n      0x02\n        /* \"#utility.yul\":10404:10410   */\n      dup9\n        /* \"#utility.yul\":10400:10414   */\n      mul\n        /* \"#utility.yul\":10396:10418   */\n      add\n        /* \"#utility.yul\":10390:10394   */\n      dup9\n        /* \"#utility.yul\":10383:10419   */\n      sstore\n        /* \"#utility.yul\":9818:10429   */\n      pop\n      pop\n      pop\n        /* \"#utility.yul\":9781:10668   */\n    tag_178:\n      pop\n        /* \"#utility.yul\":9371:10674   */\n      pop\n      pop\n      pop\n        /* \"#utility.yul\":9279:10674   */\n      pop\n      pop\n      jump\t// out\n\n    auxdata: 0xa2646970667358221220ba26becab1cfc7863562094df6ce395bc02eb8e09629cf6a992f4483a0a5085164736f6c634300081e0033\n}\n",
				"bytecode": {
					"linkReferences": {},
					"object": "6080604052348015600e575f5ffd5b50335f5f6101000a81548173ffffffffffffffffffffffffffffffffffffffff021916908373ffffffffffffffffffffffffffffffffffffffff1602179055506107cb8061005b5f395ff3fe608060405234801561000f575f5ffd5b506004361061003f575f3560e01c80637ed6c926146100435780638da5cb5b1461005f578063d1efd30d1461007d575b5f5ffd5b61005d60048036038101906100589190610339565b61009b565b005b61006761013c565b60405161007491906103bf565b60405180910390f35b610085610160565b6040516100929190610438565b60405180910390f35b5f5f9054906101000a900473ffffffffffffffffffffffffffffffffffffffff1673ffffffffffffffffffffffffffffffffffffffff163373ffffffffffffffffffffffffffffffffffffffff1614610129576040517f08c379a0000000000000000000000000000000000000000000000000000000008152600401610120906104a2565b60405180910390fd5b806001908161013891906106c6565b5050565b5f5f9054906101000a900473ffffffffffffffffffffffffffffffffffffffff1681565b6001805461016d906104ed565b80601f0160208091040260200160405190810160405280929190818152602001828054610199906104ed565b80156101e45780601f106101bb576101008083540402835291602001916101e4565b820191905f5260205f20905b8154815290600101906020018083116101c757829003601f168201915b505050505081565b5f604051905090565b5f5ffd5b5f5ffd5b5f5ffd5b5f5ffd5b5f601f19601f8301169050919050565b7f4e487b71000000000000000000000000000000000000000000000000000000005f52604160045260245ffd5b61024b82610205565b810181811067ffffffffffffffff8211171561026a57610269610215565b5b80604052505050565b5f61027c6101ec565b90506102888282610242565b919050565b5f67ffffffffffffffff8211156102a7576102a6610215565b5b6102b082610205565b9050602081019050919050565b828183375f83830152505050565b5f6102dd6102d88461028d565b610273565b9050828152602081018484840111156102f9576102f8610201565b5b6103048482856102bd565b509392505050565b5f82601f8301126103205761031f6101fd565b5b81356103308482602086016102cb565b91505092915050565b5f6020828403121561034e5761034d6101f5565b5b5f82013567ffffffffffffffff81111561036b5761036a6101f9565b5b6103778482850161030c565b91505092915050565b5f73ffffffffffffffffffffffffffffffffffffffff82169050919050565b5f6103a982610380565b9050919050565b6103b98161039f565b82525050565b5f6020820190506103d25f8301846103b0565b92915050565b5f81519050919050565b5f82825260208201905092915050565b8281835e5f83830152505050565b5f61040a826103d8565b61041481856103e2565b93506104248185602086016103f2565b61042d81610205565b840191505092915050565b5f6020820190508181035f8301526104508184610400565b905092915050565b7f4e6f74206f776e657200000000000000000000000000000000000000000000005f82015250565b5f61048c6009836103e2565b915061049782610458565b602082019050919050565b5f6020820190508181035f8301526104b981610480565b9050919050565b7f4e487b71000000000000000000000000000000000000000000000000000000005f52602260045260245ffd5b5f600282049050600182168061050457607f821691505b602082108103610517576105166104c0565b5b50919050565b5f819050815f5260205f209050919050565b5f6020601f8301049050919050565b5f82821b905092915050565b5f600883026105797fffffffffffffffffffffffffffffffffffffffffffffffffffffffffffffffff8261053e565b610583868361053e565b95508019841693508086168417925050509392505050565b5f819050919050565b5f819050919050565b5f6105c76105c26105bd8461059b565b6105a4565b61059b565b9050919050565b5f819050919050565b6105e0836105ad565b6105f46105ec826105ce565b84845461054a565b825550505050565b5f5f905090565b61060b6105fc565b6106168184846105d7565b505050565b5b818110156106395761062e5f82610603565b60018101905061061c565b5050565b601f82111561067e5761064f8161051d565b6106588461052f565b81016020851015610667578190505b61067b6106738561052f565b83018261061b565b50505b505050565b5f82821c905092915050565b5f61069e5f1984600802610683565b1980831691505092915050565b5f6106b6838361068f565b9150826002028217905092915050565b6106cf826103d8565b67ffffffffffffffff8111156106e8576106e7610215565b5b6106f282546104ed565b6106fd82828561063d565b5f60209050601f83116001811461072e575f841561071c578287015190505b61072685826106ab565b86555061078d565b601f19841661073c8661051d565b5f5b828110156107635784890151825560018201915060208501945060208101905061073e565b86831015610780578489015161077c601f89168261068f565b8355505b6001600288020188555050505b50505050505056fea2646970667358221220ba26becab1cfc7863562094df6ce395bc02eb8e09629cf6a992f4483a0a5085164736f6c634300081e0033",
					"opcodes": "PUSH1 0x80 PUSH1 0x40 MSTORE CALLVALUE DUP1 ISZERO PUSH1 0xE JUMPI PUSH0 PUSH0 REVERT JUMPDEST POP CALLER PUSH0 PUSH0 PUSH2 0x100 EXP DUP2 SLOAD DUP2 PUSH20 0xFFFFFFFFFFFFFFFFFFFFFFFFFFFFFFFFFFFFFFFF MUL NOT AND SWAP1 DUP4 PUSH20 0xFFFFFFFFFFFFFFFFFFFFFFFFFFFFFFFFFFFFFFFF AND MUL OR SWAP1 SSTORE POP PUSH2 0x7CB DUP1 PUSH2 0x5B PUSH0 CODECOPY PUSH0 RETURN INVALID PUSH1 0x80 PUSH1 0x40 MSTORE CALLVALUE DUP1 ISZERO PUSH2 0xF JUMPI PUSH0 PUSH0 REVERT JUMPDEST POP PUSH1 0x4 CALLDATASIZE LT PUSH2 0x3F JUMPI PUSH0 CALLDATALOAD PUSH1 0xE0 SHR DUP1 PUSH4 0x7ED6C926 EQ PUSH2 0x43 JUMPI DUP1 PUSH4 0x8DA5CB5B EQ PUSH2 0x5F JUMPI DUP1 PUSH4 0xD1EFD30D EQ PUSH2 0x7D JUMPI JUMPDEST PUSH0 PUSH0 REVERT JUMPDEST PUSH2 0x5D PUSH1 0x4 DUP1 CALLDATASIZE SUB DUP2 ADD SWAP1 PUSH2 0x58 SWAP2 SWAP1 PUSH2 0x339 JUMP JUMPDEST PUSH2 0x9B JUMP JUMPDEST STOP JUMPDEST PUSH2 0x67 PUSH2 0x13C JUMP JUMPDEST PUSH1 0x40 MLOAD PUSH2 0x74 SWAP2 SWAP1 PUSH2 0x3BF JUMP JUMPDEST PUSH1 0x40 MLOAD DUP1 SWAP2 SUB SWAP1 RETURN JUMPDEST PUSH2 0x85 PUSH2 0x160 JUMP JUMPDEST PUSH1 0x40 MLOAD PUSH2 0x92 SWAP2 SWAP1 PUSH2 0x438 JUMP JUMPDEST PUSH1 0x40 MLOAD DUP1 SWAP2 SUB SWAP1 RETURN JUMPDEST PUSH0 PUSH0 SWAP1 SLOAD SWAP1 PUSH2 0x100 EXP SWAP1 DIV PUSH20 0xFFFFFFFFFFFFFFFFFFFFFFFFFFFFFFFFFFFFFFFF AND PUSH20 0xFFFFFFFFFFFFFFFFFFFFFFFFFFFFFFFFFFFFFFFF AND CALLER PUSH20 0xFFFFFFFFFFFFFFFFFFFFFFFFFFFFFFFFFFFFFFFF AND EQ PUSH2 0x129 JUMPI PUSH1 0x40 MLOAD PUSH32 0x8C379A000000000000000000000000000000000000000000000000000000000 DUP2 MSTORE PUSH1 0x4 ADD PUSH2 0x120 SWAP1 PUSH2 0x4A2 JUMP JUMPDEST PUSH1 0x40 MLOAD DUP1 SWAP2 SUB SWAP1 REVERT JUMPDEST DUP1 PUSH1 0x1 SWAP1 DUP2 PUSH2 0x138 SWAP2 SWAP1 PUSH2 0x6C6 JUMP JUMPDEST POP POP JUMP JUMPDEST PUSH0 PUSH0 SWAP1 SLOAD SWAP1 PUSH2 0x100 EXP SWAP1 DIV PUSH20 0xFFFFFFFFFFFFFFFFFFFFFFFFFFFFFFFFFFFFFFFF AND DUP2 JUMP JUMPDEST PUSH1 0x1 DUP1 SLOAD PUSH2 0x16D SWAP1 PUSH2 0x4ED JUMP JUMPDEST DUP1 PUSH1 0x1F ADD PUSH1 0x20 DUP1 SWAP2 DIV MUL PUSH1 0x20 ADD PUSH1 0x40 MLOAD SWAP1 DUP2 ADD PUSH1 0x40 MSTORE DUP1 SWAP3 SWAP2 SWAP1 DUP2 DUP2 MSTORE PUSH1 0x20 ADD DUP3 DUP1 SLOAD PUSH2 0x199 SWAP1 PUSH2 0x4ED JUMP JUMPDEST DUP1 ISZERO PUSH2 0x1E4 JUMPI DUP1 PUSH1 0x1F LT PUSH2 0x1BB JUMPI PUSH2 0x100 DUP1 DUP4 SLOAD DIV MUL DUP4 MSTORE SWAP2 PUSH1 0x20 ADD SWAP2 PUSH2 0x1E4 JUMP JUMPDEST DUP3 ADD SWAP2 SWAP1 PUSH0 MSTORE PUSH1 0x20 PUSH0 KECCAK256 SWAP1 JUMPDEST DUP2 SLOAD DUP2 MSTORE SWAP1 PUSH1 0x1 ADD SWAP1 PUSH1 0x20 ADD DUP1 DUP4 GT PUSH2 0x1C7 JUMPI DUP3 SWAP1 SUB PUSH1 0x1F AND DUP3 ADD SWAP2 JUMPDEST POP POP POP POP POP DUP2 JUMP JUMPDEST PUSH0 PUSH1 0x40 MLOAD SWAP1 POP SWAP1 JUMP JUMPDEST PUSH0 PUSH0 REVERT JUMPDEST PUSH0 PUSH0 REVERT JUMPDEST PUSH0 PUSH0 REVERT JUMPDEST PUSH0 PUSH0 REVERT JUMPDEST PUSH0 PUSH1 0x1F NOT PUSH1 0x1F DUP4 ADD AND SWAP1 POP SWAP2 SWAP1 POP JUMP JUMPDEST PUSH32 0x4E487B7100000000000000000000000000000000000000000000000000000000 PUSH0 MSTORE PUSH1 0x41 PUSH1 0x4 MSTORE PUSH1 0x24 PUSH0 REVERT JUMPDEST PUSH2 0x24B DUP3 PUSH2 0x205 JUMP JUMPDEST DUP2 ADD DUP2 DUP2 LT PUSH8 0xFFFFFFFFFFFFFFFF DUP3 GT OR ISZERO PUSH2 0x26A JUMPI PUSH2 0x269 PUSH2 0x215 JUMP JUMPDEST JUMPDEST DUP1 PUSH1 0x40 MSTORE POP POP POP JUMP JUMPDEST PUSH0 PUSH2 0x27C PUSH2 0x1EC JUMP JUMPDEST SWAP1 POP PUSH2 0x288 DUP3 DUP3 PUSH2 0x242 JUMP JUMPDEST SWAP2 SWAP1 POP JUMP JUMPDEST PUSH0 PUSH8 0xFFFFFFFFFFFFFFFF DUP3 GT ISZERO PUSH2 0x2A7 JUMPI PUSH2 0x2A6 PUSH2 0x215 JUMP JUMPDEST JUMPDEST PUSH2 0x2B0 DUP3 PUSH2 0x205 JUMP JUMPDEST SWAP1 POP PUSH1 0x20 DUP2 ADD SWAP1 POP SWAP2 SWAP1 POP JUMP JUMPDEST DUP3 DUP2 DUP4 CALLDATACOPY PUSH0 DUP4 DUP4 ADD MSTORE POP POP POP JUMP JUMPDEST PUSH0 PUSH2 0x2DD PUSH2 0x2D8 DUP5 PUSH2 0x28D JUMP JUMPDEST PUSH2 0x273 JUMP JUMPDEST SWAP1 POP DUP3 DUP2 MSTORE PUSH1 0x20 DUP2 ADD DUP5 DUP5 DUP5 ADD GT ISZERO PUSH2 0x2F9 JUMPI PUSH2 0x2F8 PUSH2 0x201 JUMP JUMPDEST JUMPDEST PUSH2 0x304 DUP5 DUP3 DUP6 PUSH2 0x2BD JUMP JUMPDEST POP SWAP4 SWAP3 POP POP POP JUMP JUMPDEST PUSH0 DUP3 PUSH1 0x1F DUP4 ADD SLT PUSH2 0x320 JUMPI PUSH2 0x31F PUSH2 0x1FD JUMP JUMPDEST JUMPDEST DUP2 CALLDATALOAD PUSH2 0x330 DUP5 DUP3 PUSH1 0x20 DUP7 ADD PUSH2 0x2CB JUMP JUMPDEST SWAP2 POP POP SWAP3 SWAP2 POP POP JUMP JUMPDEST PUSH0 PUSH1 0x20 DUP3 DUP5 SUB SLT ISZERO PUSH2 0x34E JUMPI PUSH2 0x34D PUSH2 0x1F5 JUMP JUMPDEST JUMPDEST PUSH0 DUP3 ADD CALLDATALOAD PUSH8 0xFFFFFFFFFFFFFFFF DUP2 GT ISZERO PUSH2 0x36B JUMPI PUSH2 0x36A PUSH2 0x1F9 JUMP JUMPDEST JUMPDEST PUSH2 0x377 DUP5 DUP3 DUP6 ADD PUSH2 0x30C JUMP JUMPDEST SWAP2 POP POP SWAP3 SWAP2 POP POP JUMP JUMPDEST PUSH0 PUSH20 0xFFFFFFFFFFFFFFFFFFFFFFFFFFFFFFFFFFFFFFFF DUP3 AND SWAP1 POP SWAP2 SWAP1 POP JUMP JUMPDEST PUSH0 PUSH2 0x3A9 DUP3 PUSH2 0x380 JUMP JUMPDEST SWAP1 POP SWAP2 SWAP1 POP JUMP JUMPDEST PUSH2 0x3B9 DUP2 PUSH2 0x39F JUMP JUMPDEST DUP3 MSTORE POP POP JUMP JUMPDEST PUSH0 PUSH1 0x20 DUP3 ADD SWAP1 POP PUSH2 0x3D2 PUSH0 DUP4 ADD DUP5 PUSH2 0x3B0 JUMP JUMPDEST SWAP3 SWAP2 POP POP JUMP JUMPDEST PUSH0 DUP2 MLOAD SWAP1 POP SWAP2 SWAP1 POP JUMP JUMPDEST PUSH0 DUP3 DUP3 MSTORE PUSH1 0x20 DUP3 ADD SWAP1 POP SWAP3 SWAP2 POP POP JUMP JUMPDEST DUP3 DUP2 DUP4 MCOPY PUSH0 DUP4 DUP4 ADD MSTORE POP POP POP JUMP JUMPDEST PUSH0 PUSH2 0x40A DUP3 PUSH2 0x3D8 JUMP JUMPDEST PUSH2 0x414 DUP2 DUP6 PUSH2 0x3E2 JUMP JUMPDEST SWAP4 POP PUSH2 0x424 DUP2 DUP6 PUSH1 0x20 DUP7 ADD PUSH2 0x3F2 JUMP JUMPDEST PUSH2 0x42D DUP2 PUSH2 0x205 JUMP JUMPDEST DUP5 ADD SWAP2 POP POP SWAP3 SWAP2 POP POP JUMP JUMPDEST PUSH0 PUSH1 0x20 DUP3 ADD SWAP1 POP DUP2 DUP2 SUB PUSH0 DUP4 ADD MSTORE PUSH2 0x450 DUP2 DUP5 PUSH2 0x400 JUMP JUMPDEST SWAP1 POP SWAP3 SWAP2 POP POP JUMP JUMPDEST PUSH32 0x4E6F74206F776E65720000000000000000000000000000000000000000000000 PUSH0 DUP3 ADD MSTORE POP JUMP JUMPDEST PUSH0 PUSH2 0x48C PUSH1 0x9 DUP4 PUSH2 0x3E2 JUMP JUMPDEST SWAP2 POP PUSH2 0x497 DUP3 PUSH2 0x458 JUMP JUMPDEST PUSH1 0x20 DUP3 ADD SWAP1 POP SWAP2 SWAP1 POP JUMP JUMPDEST PUSH0 PUSH1 0x20 DUP3 ADD SWAP1 POP DUP2 DUP2 SUB PUSH0 DUP4 ADD MSTORE PUSH2 0x4B9 DUP2 PUSH2 0x480 JUMP JUMPDEST SWAP1 POP SWAP2 SWAP1 POP JUMP JUMPDEST PUSH32 0x4E487B7100000000000000000000000000000000000000000000000000000000 PUSH0 MSTORE PUSH1 0x22 PUSH1 0x4 MSTORE PUSH1 0x24 PUSH0 REVERT JUMPDEST PUSH0 PUSH1 0x2 DUP3 DIV SWAP1 POP PUSH1 0x1 DUP3 AND DUP1 PUSH2 0x504 JUMPI PUSH1 0x7F DUP3 AND SWAP2 POP JUMPDEST PUSH1 0x20 DUP3 LT DUP2 SUB PUSH2 0x517 JUMPI PUSH2 0x516 PUSH2 0x4C0 JUMP JUMPDEST JUMPDEST POP SWAP2 SWAP1 POP JUMP JUMPDEST PUSH0 DUP2 SWAP1 POP DUP2 PUSH0 MSTORE PUSH1 0x20 PUSH0 KECCAK256 SWAP1 POP SWAP2 SWAP1 POP JUMP JUMPDEST PUSH0 PUSH1 0x20 PUSH1 0x1F DUP4 ADD DIV SWAP1 POP SWAP2 SWAP1 POP JUMP JUMPDEST PUSH0 DUP3 DUP3 SHL SWAP1 POP SWAP3 SWAP2 POP POP JUMP JUMPDEST PUSH0 PUSH1 0x8 DUP4 MUL PUSH2 0x579 PUSH32 0xFFFFFFFFFFFFFFFFFFFFFFFFFFFFFFFFFFFFFFFFFFFFFFFFFFFFFFFFFFFFFFFF DUP3 PUSH2 0x53E JUMP JUMPDEST PUSH2 0x583 DUP7 DUP4 PUSH2 0x53E JUMP JUMPDEST SWAP6 POP DUP1 NOT DUP5 AND SWAP4 POP DUP1 DUP7 AND DUP5 OR SWAP3 POP POP POP SWAP4 SWAP3 POP POP POP JUMP JUMPDEST PUSH0 DUP2 SWAP1 POP SWAP2 SWAP1 POP JUMP JUMPDEST PUSH0 DUP2 SWAP1 POP SWAP2 SWAP1 POP JUMP JUMPDEST PUSH0 PUSH2 0x5C7 PUSH2 0x5C2 PUSH2 0x5BD DUP5 PUSH2 0x59B JUMP JUMPDEST PUSH2 0x5A4 JUMP JUMPDEST PUSH2 0x59B JUMP JUMPDEST SWAP1 POP SWAP2 SWAP1 POP JUMP JUMPDEST PUSH0 DUP2 SWAP1 POP SWAP2 SWAP1 POP JUMP JUMPDEST PUSH2 0x5E0 DUP4 PUSH2 0x5AD JUMP JUMPDEST PUSH2 0x5F4 PUSH2 0x5EC DUP3 PUSH2 0x5CE JUMP JUMPDEST DUP5 DUP5 SLOAD PUSH2 0x54A JUMP JUMPDEST DUP3 SSTORE POP POP POP POP JUMP JUMPDEST PUSH0 PUSH0 SWAP1 POP SWAP1 JUMP JUMPDEST PUSH2 0x60B PUSH2 0x5FC JUMP JUMPDEST PUSH2 0x616 DUP2 DUP5 DUP5 PUSH2 0x5D7 JUMP JUMPDEST POP POP POP JUMP JUMPDEST JUMPDEST DUP2 DUP2 LT ISZERO PUSH2 0x639 JUMPI PUSH2 0x62E PUSH0 DUP3 PUSH2 0x603 JUMP JUMPDEST PUSH1 0x1 DUP2 ADD SWAP1 POP PUSH2 0x61C JUMP JUMPDEST POP POP JUMP JUMPDEST PUSH1 0x1F DUP3 GT ISZERO PUSH2 0x67E JUMPI PUSH2 0x64F DUP2 PUSH2 0x51D JUMP JUMPDEST PUSH2 0x658 DUP5 PUSH2 0x52F JUMP JUMPDEST DUP2 ADD PUSH1 0x20 DUP6 LT ISZERO PUSH2 0x667 JUMPI DUP2 SWAP1 POP JUMPDEST PUSH2 0x67B PUSH2 0x673 DUP6 PUSH2 0x52F JUMP JUMPDEST DUP4 ADD DUP3 PUSH2 0x61B JUMP JUMPDEST POP POP JUMPDEST POP POP POP JUMP JUMPDEST PUSH0 DUP3 DUP3 SHR SWAP1 POP SWAP3 SWAP2 POP POP JUMP JUMPDEST PUSH0 PUSH2 0x69E PUSH0 NOT DUP5 PUSH1 0x8 MUL PUSH2 0x683 JUMP JUMPDEST NOT DUP1 DUP4 AND SWAP2 POP POP SWAP3 SWAP2 POP POP JUMP JUMPDEST PUSH0 PUSH2 0x6B6 DUP4 DUP4 PUSH2 0x68F JUMP JUMPDEST SWAP2 POP DUP3 PUSH1 0x2 MUL DUP3 OR SWAP1 POP SWAP3 SWAP2 POP POP JUMP JUMPDEST PUSH2 0x6CF DUP3 PUSH2 0x3D8 JUMP JUMPDEST PUSH8 0xFFFFFFFFFFFFFFFF DUP2 GT ISZERO PUSH2 0x6E8 JUMPI PUSH2 0x6E7 PUSH2 0x215 JUMP JUMPDEST JUMPDEST PUSH2 0x6F2 DUP3 SLOAD PUSH2 0x4ED JUMP JUMPDEST PUSH2 0x6FD DUP3 DUP3 DUP6 PUSH2 0x63D JUMP JUMPDEST PUSH0 PUSH1 0x20 SWAP1 POP PUSH1 0x1F DUP4 GT PUSH1 0x1 DUP2 EQ PUSH2 0x72E JUMPI PUSH0 DUP5 ISZERO PUSH2 0x71C JUMPI DUP3 DUP8 ADD MLOAD SWAP1 POP JUMPDEST PUSH2 0x726 DUP6 DUP3 PUSH2 0x6AB JUMP JUMPDEST DUP7 SSTORE POP PUSH2 0x78D JUMP JUMPDEST PUSH1 0x1F NOT DUP5 AND PUSH2 0x73C DUP7 PUSH2 0x51D JUMP JUMPDEST PUSH0 JUMPDEST DUP3 DUP2 LT ISZERO PUSH2 0x763 JUMPI DUP5 DUP10 ADD MLOAD DUP3 SSTORE PUSH1 0x1 DUP3 ADD SWAP2 POP PUSH1 0x20 DUP6 ADD SWAP5 POP PUSH1 0x20 DUP2 ADD SWAP1 POP PUSH2 0x73E JUMP JUMPDEST DUP7 DUP4 LT ISZERO PUSH2 0x780 JUMPI DUP5 DUP10 ADD MLOAD PUSH2 0x77C PUSH1 0x1F DUP10 AND DUP3 PUSH2 0x68F JUMP JUMPDEST DUP4 SSTORE POP JUMPDEST PUSH1 0x1 PUSH1 0x2 DUP9 MUL ADD DUP9 SSTORE POP POP POP JUMPDEST POP POP POP POP POP POP JUMP INVALID LOG2 PUSH5 0x6970667358 0x22 SLT KECCAK256 0xBA 0x26 0xBE 0xCA 0xB1 0xCF 0xC7 DUP7 CALLDATALOAD PUSH3 0x94DF6 0xCE CODECOPY JUMPDEST 0xC0 0x2E 0xB8 RJUMP 0x9629 0xCF PUSH11 0x992F4483A0A5085164736F PUSH13 0x634300081E0033000000000000 "
				},
				"gasEstimates": {
					"creation": {
						"codeDepositCost": "399000",
						"executionCost": "24698",
						"totalCost": "423698"
					},
					"external": {
						"owner()": "2507",
						"secret()": "infinite",
						"setSecret(string)": "infinite"
					}
				},
				"methodIdentifiers": {
					"owner()": "8da5cb5b",
					"secret()": "d1efd30d",
					"setSecret(string)": "7ed6c926"
				}
			},
			"storageLayout": {
				"storage": [
					{
						"astId": 3,
						"contract": "contracts/xzq_3_owner.sol:OwnableExample",
						"label": "owner",
						"offset": 0,
						"slot": "0",
						"type": "t_address"
					},
					{
						"astId": 26,
						"contract": "contracts/xzq_3_owner.sol:OwnableExample",
						"label": "secret",
						"offset": 0,
						"slot": "1",
						"type": "t_string_storage"
					}
				],
				"types": {
					"t_address": {
						"encoding": "inplace",
						"label": "address",
						"numberOfBytes": "20"
					},
					"t_string_storage": {
						"encoding": "bytes",
						"label": "string",
						"numberOfBytes": "32"
					}
				}
			},
			"userdoc": {
				"kind": "user",
				"methods": {},
				"version": 1
			}
		}
	}
}