{
	"contracts/xzq_8_bank2.sol": {
		"Bank": {
			"abi": [
				{
					"inputs": [
						{
							"internalType": "address",
							"name": "",
							"type": "address"
						}
					],
					"name": "balances",
					"outputs": [
						{
							"internalType": "uint256",
							"name": "",
							"type": "uint256"
						}
					],
					"stateMutability": "view",
					"type": "function"
				},
				{
					"inputs": [],
					"name": "deposit",
					"outputs": [],
					"stateMutability": "payable",
					"type": "function"
				},
				{
					"inputs": [],
					"name": "maxWithdraw",
					"outputs": [
						{
							"internalType": "uint256",
							"name": "",
							"type": "uint256"
						}
					],
					"stateMutability": "view",
					"type": "function"
				},
				{
					"inputs": [
						{
							"internalType": "uint256",
							"name": "amount",
							"type": "uint256"
						}
					],
					"name": "withdraw",
					"outputs": [],
					"stateMutability": "nonpayable",
					"type": "function"
				}
			],
			"devdoc": {
				"kind": "dev",
				"methods": {},
				"version": 1
			},
			"evm": {
				"assembly": "    /* \"contracts/xzq_8_bank2.sol\":62:563  contract Bank{... */\n  mstore(0x40, 0x80)\n    /* \"contracts/xzq_8_bank2.sol\":158:165  100 wei */\n  0x64\n    /* \"contracts/xzq_8_bank2.sol\":134:165  uint public maxWithdraw=100 wei */\n  0x01\n  sstore\n    /* \"contracts/xzq_8_bank2.sol\":62:563  contract Bank{... */\n  callvalue\n  dup1\n  iszero\n  tag_1\n  jumpi\n  revert(0x00, 0x00)\ntag_1:\n  pop\n  dataSize(sub_0)\n  dup1\n  dataOffset(sub_0)\n  0x00\n  codecopy\n  0x00\n  return\nstop\n\nsub_0: assembly {\n        /* \"contracts/xzq_8_bank2.sol\":62:563  contract Bank{... */\n      mstore(0x40, 0x80)\n      jumpi(tag_1, lt(calldatasize, 0x04))\n      shr(0xe0, calldataload(0x00))\n      dup1\n      0x27e235e3\n      eq\n      tag_2\n      jumpi\n      dup1\n      0x2e1a7d4d\n      eq\n      tag_3\n      jumpi\n      dup1\n      0xac7a1b5b\n      eq\n      tag_4\n      jumpi\n      dup1\n      0xd0e30db0\n      eq\n      tag_5\n      jumpi\n    tag_1:\n      revert(0x00, 0x00)\n        /* \"contracts/xzq_8_bank2.sol\":84:127  mapping (address=>uint256) public  balances */\n    tag_2:\n      callvalue\n      dup1\n      iszero\n      tag_6\n      jumpi\n      revert(0x00, 0x00)\n    tag_6:\n      pop\n      tag_7\n      0x04\n      dup1\n      calldatasize\n      sub\n      dup2\n      add\n      swap1\n      tag_8\n      swap2\n      swap1\n      tag_9\n      jump\t// in\n    tag_8:\n      tag_10\n      jump\t// in\n    tag_7:\n      mload(0x40)\n      tag_11\n      swap2\n      swap1\n      tag_12\n      jump\t// in\n    tag_11:\n      mload(0x40)\n      dup1\n      swap2\n      sub\n      swap1\n      return\n        /* \"contracts/xzq_8_bank2.sol\":297:560  function withdraw(uint256 amount) public {... */\n    tag_3:\n      callvalue\n      dup1\n      iszero\n      tag_13\n      jumpi\n      revert(0x00, 0x00)\n    tag_13:\n      pop\n      tag_14\n      0x04\n      dup1\n      calldatasize\n      sub\n      dup2\n      add\n      swap1\n      tag_15\n      swap2\n      swap1\n      tag_16\n      jump\t// in\n    tag_15:\n      tag_17\n      jump\t// in\n    tag_14:\n      stop\n        /* \"contracts/xzq_8_bank2.sol\":134:165  uint public maxWithdraw=100 wei */\n    tag_4:\n      callvalue\n      dup1\n      iszero\n      tag_18\n      jumpi\n      revert(0x00, 0x00)\n    tag_18:\n      pop\n      tag_19\n      tag_20\n      jump\t// in\n    tag_19:\n      mload(0x40)\n      tag_21\n      swap2\n      swap1\n      tag_12\n      jump\t// in\n    tag_21:\n      mload(0x40)\n      dup1\n      swap2\n      sub\n      swap1\n      return\n        /* \"contracts/xzq_8_bank2.sol\":188:275  function deposit() public payable {... */\n    tag_5:\n      tag_22\n      tag_23\n      jump\t// in\n    tag_22:\n      stop\n        /* \"contracts/xzq_8_bank2.sol\":84:127  mapping (address=>uint256) public  balances */\n    tag_10:\n      mstore(0x20, 0x00)\n      dup1\n      0x00\n      mstore\n      keccak256(0x00, 0x40)\n      0x00\n      swap2\n      pop\n      swap1\n      pop\n      sload\n      dup2\n      jump\t// out\n        /* \"contracts/xzq_8_bank2.sol\":297:560  function withdraw(uint256 amount) public {... */\n    tag_17:\n        /* \"contracts/xzq_8_bank2.sol\":366:377  maxWithdraw */\n      sload(0x01)\n        /* \"contracts/xzq_8_bank2.sol\":357:363  amount */\n      dup2\n        /* \"contracts/xzq_8_bank2.sol\":357:377  amount<= maxWithdraw */\n      gt\n      iszero\n        /* \"contracts/xzq_8_bank2.sol\":349:394  require(amount<= maxWithdraw,\"Exceeds limit\") */\n      tag_25\n      jumpi\n      mload(0x40)\n      0x08c379a000000000000000000000000000000000000000000000000000000000\n      dup2\n      mstore\n      0x04\n      add\n      tag_26\n      swap1\n      tag_27\n      jump\t// in\n    tag_26:\n      mload(0x40)\n      dup1\n      swap2\n      sub\n      swap1\n      revert\n    tag_25:\n        /* \"contracts/xzq_8_bank2.sol\":435:441  amount */\n      dup1\n        /* \"contracts/xzq_8_bank2.sol\":413:421  balances */\n      0x00\n        /* \"contracts/xzq_8_bank2.sol\":413:433  balances[msg.sender] */\n      0x00\n        /* \"contracts/xzq_8_bank2.sol\":422:432  msg.sender */\n      caller\n        /* \"contracts/xzq_8_bank2.sol\":413:433  balances[msg.sender] */\n      0xffffffffffffffffffffffffffffffffffffffff\n      and\n      0xffffffffffffffffffffffffffffffffffffffff\n      and\n      dup2\n      mstore\n      0x20\n      add\n      swap1\n      dup2\n      mstore\n      0x20\n      add\n      0x00\n      keccak256\n      sload\n        /* \"contracts/xzq_8_bank2.sol\":413:441  balances[msg.sender]>=amount */\n      lt\n      iszero\n        /* \"contracts/xzq_8_bank2.sol\":405:462  require(balances[msg.sender]>=amount,\"Not enough blance\") */\n      tag_28\n      jumpi\n      mload(0x40)\n      0x08c379a000000000000000000000000000000000000000000000000000000000\n      dup2\n      mstore\n      0x04\n      add\n      tag_29\n      swap1\n      tag_30\n      jump\t// in\n    tag_29:\n      mload(0x40)\n      dup1\n      swap2\n      sub\n      swap1\n      revert\n    tag_28:\n        /* \"contracts/xzq_8_bank2.sol\":498:504  amount */\n      dup1\n        /* \"contracts/xzq_8_bank2.sol\":475:483  balances */\n      0x00\n        /* \"contracts/xzq_8_bank2.sol\":475:495  balances[msg.sender] */\n      0x00\n        /* \"contracts/xzq_8_bank2.sol\":484:494  msg.sender */\n      caller\n        /* \"contracts/xzq_8_bank2.sol\":475:495  balances[msg.sender] */\n      0xffffffffffffffffffffffffffffffffffffffff\n      and\n      0xffffffffffffffffffffffffffffffffffffffff\n      and\n      dup2\n      mstore\n      0x20\n      add\n      swap1\n      dup2\n      mstore\n      0x20\n      add\n      0x00\n      keccak256\n      0x00\n        /* \"contracts/xzq_8_bank2.sol\":475:504  balances[msg.sender] -=amount */\n      dup3\n      dup3\n      sload\n      tag_31\n      swap2\n      swap1\n      tag_32\n      jump\t// in\n    tag_31:\n      swap3\n      pop\n      pop\n      dup2\n      swap1\n      sstore\n      pop\n        /* \"contracts/xzq_8_bank2.sol\":524:534  msg.sender */\n      caller\n        /* \"contracts/xzq_8_bank2.sol\":515:544  payable (msg.sender).transfer */\n      0xffffffffffffffffffffffffffffffffffffffff\n      and\n        /* \"contracts/xzq_8_bank2.sol\":515:552  payable (msg.sender).transfer(amount) */\n      0x08fc\n        /* \"contracts/xzq_8_bank2.sol\":545:551  amount */\n      dup3\n        /* \"contracts/xzq_8_bank2.sol\":515:552  payable (msg.sender).transfer(amount) */\n      swap1\n      dup2\n      iszero\n      mul\n      swap1\n      mload(0x40)\n      0x00\n      mload(0x40)\n      dup1\n      dup4\n      sub\n      dup2\n      dup6\n      dup9\n      dup9\n      call\n      swap4\n      pop\n      pop\n      pop\n      pop\n      iszero\n      dup1\n      iszero\n      tag_34\n      jumpi\n      returndatacopy(0x00, 0x00, returndatasize)\n      revert(0x00, returndatasize)\n    tag_34:\n      pop\n        /* \"contracts/xzq_8_bank2.sol\":297:560  function withdraw(uint256 amount) public {... */\n      pop\n      jump\t// out\n        /* \"contracts/xzq_8_bank2.sol\":134:165  uint public maxWithdraw=100 wei */\n    tag_20:\n      sload(0x01)\n      dup2\n      jump\t// out\n        /* \"contracts/xzq_8_bank2.sol\":188:275  function deposit() public payable {... */\n    tag_23:\n        /* \"contracts/xzq_8_bank2.sol\":256:265  msg.value */\n      callvalue\n        /* \"contracts/xzq_8_bank2.sol\":233:241  balances */\n      0x00\n        /* \"contracts/xzq_8_bank2.sol\":233:253  balances[msg.sender] */\n      0x00\n        /* \"contracts/xzq_8_bank2.sol\":242:252  msg.sender */\n      caller\n        /* \"contracts/xzq_8_bank2.sol\":233:253  balances[msg.sender] */\n      0xffffffffffffffffffffffffffffffffffffffff\n      and\n      0xffffffffffffffffffffffffffffffffffffffff\n      and\n      dup2\n      mstore\n      0x20\n      add\n      swap1\n      dup2\n      mstore\n      0x20\n      add\n      0x00\n      keccak256\n      0x00\n        /* \"contracts/xzq_8_bank2.sol\":233:265  balances[msg.sender] +=msg.value */\n      dup3\n      dup3\n      sload\n      tag_36\n      swap2\n      swap1\n      tag_37\n      jump\t// in\n    tag_36:\n      swap3\n      pop\n      pop\n      dup2\n      swap1\n      sstore\n      pop\n        /* \"contracts/xzq_8_bank2.sol\":188:275  function deposit() public payable {... */\n      jump\t// out\n        /* \"#utility.yul\":88:205   */\n    tag_39:\n        /* \"#utility.yul\":197:198   */\n      0x00\n        /* \"#utility.yul\":194:195   */\n      0x00\n        /* \"#utility.yul\":187:199   */\n      revert\n        /* \"#utility.yul\":334:460   */\n    tag_41:\n        /* \"#utility.yul\":371:378   */\n      0x00\n        /* \"#utility.yul\":411:453   */\n      0xffffffffffffffffffffffffffffffffffffffff\n        /* \"#utility.yul\":404:409   */\n      dup3\n        /* \"#utility.yul\":400:454   */\n      and\n        /* \"#utility.yul\":389:454   */\n      swap1\n      pop\n        /* \"#utility.yul\":334:460   */\n      swap2\n      swap1\n      pop\n      jump\t// out\n        /* \"#utility.yul\":466:562   */\n    tag_42:\n        /* \"#utility.yul\":503:510   */\n      0x00\n        /* \"#utility.yul\":532:556   */\n      tag_61\n        /* \"#utility.yul\":550:555   */\n      dup3\n        /* \"#utility.yul\":532:556   */\n      tag_41\n      jump\t// in\n    tag_61:\n        /* \"#utility.yul\":521:556   */\n      swap1\n      pop\n        /* \"#utility.yul\":466:562   */\n      swap2\n      swap1\n      pop\n      jump\t// out\n        /* \"#utility.yul\":568:690   */\n    tag_43:\n        /* \"#utility.yul\":641:665   */\n      tag_63\n        /* \"#utility.yul\":659:664   */\n      dup2\n        /* \"#utility.yul\":641:665   */\n      tag_42\n      jump\t// in\n    tag_63:\n        /* \"#utility.yul\":634:639   */\n      dup2\n        /* \"#utility.yul\":631:666   */\n      eq\n        /* \"#utility.yul\":621:684   */\n      tag_64\n      jumpi\n        /* \"#utility.yul\":680:681   */\n      0x00\n        /* \"#utility.yul\":677:678   */\n      0x00\n        /* \"#utility.yul\":670:682   */\n      revert\n        /* \"#utility.yul\":621:684   */\n    tag_64:\n        /* \"#utility.yul\":568:690   */\n      pop\n      jump\t// out\n        /* \"#utility.yul\":696:835   */\n    tag_44:\n        /* \"#utility.yul\":742:747   */\n      0x00\n        /* \"#utility.yul\":780:786   */\n      dup2\n        /* \"#utility.yul\":767:787   */\n      calldataload\n        /* \"#utility.yul\":758:787   */\n      swap1\n      pop\n        /* \"#utility.yul\":796:829   */\n      tag_66\n        /* \"#utility.yul\":823:828   */\n      dup2\n        /* \"#utility.yul\":796:829   */\n      tag_43\n      jump\t// in\n    tag_66:\n        /* \"#utility.yul\":696:835   */\n      swap3\n      swap2\n      pop\n      pop\n      jump\t// out\n        /* \"#utility.yul\":841:1170   */\n    tag_9:\n        /* \"#utility.yul\":900:906   */\n      0x00\n        /* \"#utility.yul\":949:951   */\n      0x20\n        /* \"#utility.yul\":937:946   */\n      dup3\n        /* \"#utility.yul\":928:935   */\n      dup5\n        /* \"#utility.yul\":924:947   */\n      sub\n        /* \"#utility.yul\":920:952   */\n      slt\n        /* \"#utility.yul\":917:1036   */\n      iszero\n      tag_68\n      jumpi\n        /* \"#utility.yul\":955:1034   */\n      tag_69\n      tag_39\n      jump\t// in\n    tag_69:\n        /* \"#utility.yul\":917:1036   */\n    tag_68:\n        /* \"#utility.yul\":1075:1076   */\n      0x00\n        /* \"#utility.yul\":1100:1153   */\n      tag_70\n        /* \"#utility.yul\":1145:1152   */\n      dup5\n        /* \"#utility.yul\":1136:1142   */\n      dup3\n        /* \"#utility.yul\":1125:1134   */\n      dup6\n        /* \"#utility.yul\":1121:1143   */\n      add\n        /* \"#utility.yul\":1100:1153   */\n      tag_44\n      jump\t// in\n    tag_70:\n        /* \"#utility.yul\":1090:1153   */\n      swap2\n      pop\n        /* \"#utility.yul\":1046:1163   */\n      pop\n        /* \"#utility.yul\":841:1170   */\n      swap3\n      swap2\n      pop\n      pop\n      jump\t// out\n        /* \"#utility.yul\":1176:1253   */\n    tag_45:\n        /* \"#utility.yul\":1213:1220   */\n      0x00\n        /* \"#utility.yul\":1242:1247   */\n      dup2\n        /* \"#utility.yul\":1231:1247   */\n      swap1\n      pop\n        /* \"#utility.yul\":1176:1253   */\n      swap2\n      swap1\n      pop\n      jump\t// out\n        /* \"#utility.yul\":1259:1377   */\n    tag_46:\n        /* \"#utility.yul\":1346:1370   */\n      tag_73\n        /* \"#utility.yul\":1364:1369   */\n      dup2\n        /* \"#utility.yul\":1346:1370   */\n      tag_45\n      jump\t// in\n    tag_73:\n        /* \"#utility.yul\":1341:1344   */\n      dup3\n        /* \"#utility.yul\":1334:1371   */\n      mstore\n        /* \"#utility.yul\":1259:1377   */\n      pop\n      pop\n      jump\t// out\n        /* \"#utility.yul\":1383:1605   */\n    tag_12:\n        /* \"#utility.yul\":1476:1480   */\n      0x00\n        /* \"#utility.yul\":1514:1516   */\n      0x20\n        /* \"#utility.yul\":1503:1512   */\n      dup3\n        /* \"#utility.yul\":1499:1517   */\n      add\n        /* \"#utility.yul\":1491:1517   */\n      swap1\n      pop\n        /* \"#utility.yul\":1527:1598   */\n      tag_75\n        /* \"#utility.yul\":1595:1596   */\n      0x00\n        /* \"#utility.yul\":1584:1593   */\n      dup4\n        /* \"#utility.yul\":1580:1597   */\n      add\n        /* \"#utility.yul\":1571:1577   */\n      dup5\n        /* \"#utility.yul\":1527:1598   */\n      tag_46\n      jump\t// in\n    tag_75:\n        /* \"#utility.yul\":1383:1605   */\n      swap3\n      swap2\n      pop\n      pop\n      jump\t// out\n        /* \"#utility.yul\":1611:1733   */\n    tag_47:\n        /* \"#utility.yul\":1684:1708   */\n      tag_77\n        /* \"#utility.yul\":1702:1707   */\n      dup2\n        /* \"#utility.yul\":1684:1708   */\n      tag_45\n      jump\t// in\n    tag_77:\n        /* \"#utility.yul\":1677:1682   */\n      dup2\n        /* \"#utility.yul\":1674:1709   */\n      eq\n        /* \"#utility.yul\":1664:1727   */\n      tag_78\n      jumpi\n        /* \"#utility.yul\":1723:1724   */\n      0x00\n        /* \"#utility.yul\":1720:1721   */\n      0x00\n        /* \"#utility.yul\":1713:1725   */\n      revert\n        /* \"#utility.yul\":1664:1727   */\n    tag_78:\n        /* \"#utility.yul\":1611:1733   */\n      pop\n      jump\t// out\n        /* \"#utility.yul\":1739:1878   */\n    tag_48:\n        /* \"#utility.yul\":1785:1790   */\n      0x00\n        /* \"#utility.yul\":1823:1829   */\n      dup2\n        /* \"#utility.yul\":1810:1830   */\n      calldataload\n        /* \"#utility.yul\":1801:1830   */\n      swap1\n      pop\n        /* \"#utility.yul\":1839:1872   */\n      tag_80\n        /* \"#utility.yul\":1866:1871   */\n      dup2\n        /* \"#utility.yul\":1839:1872   */\n      tag_47\n      jump\t// in\n    tag_80:\n        /* \"#utility.yul\":1739:1878   */\n      swap3\n      swap2\n      pop\n      pop\n      jump\t// out\n        /* \"#utility.yul\":1884:2213   */\n    tag_16:\n        /* \"#utility.yul\":1943:1949   */\n      0x00\n        /* \"#utility.yul\":1992:1994   */\n      0x20\n        /* \"#utility.yul\":1980:1989   */\n      dup3\n        /* \"#utility.yul\":1971:1978   */\n      dup5\n        /* \"#utility.yul\":1967:1990   */\n      sub\n        /* \"#utility.yul\":1963:1995   */\n      slt\n        /* \"#utility.yul\":1960:2079   */\n      iszero\n      tag_82\n      jumpi\n        /* \"#utility.yul\":1998:2077   */\n      tag_83\n      tag_39\n      jump\t// in\n    tag_83:\n        /* \"#utility.yul\":1960:2079   */\n    tag_82:\n        /* \"#utility.yul\":2118:2119   */\n      0x00\n        /* \"#utility.yul\":2143:2196   */\n      tag_84\n        /* \"#utility.yul\":2188:2195   */\n      dup5\n        /* \"#utility.yul\":2179:2185   */\n      dup3\n        /* \"#utility.yul\":2168:2177   */\n      dup6\n        /* \"#utility.yul\":2164:2186   */\n      add\n        /* \"#utility.yul\":2143:2196   */\n      tag_48\n      jump\t// in\n    tag_84:\n        /* \"#utility.yul\":2133:2196   */\n      swap2\n      pop\n        /* \"#utility.yul\":2089:2206   */\n      pop\n        /* \"#utility.yul\":1884:2213   */\n      swap3\n      swap2\n      pop\n      pop\n      jump\t// out\n        /* \"#utility.yul\":2219:2388   */\n    tag_49:\n        /* \"#utility.yul\":2303:2314   */\n      0x00\n        /* \"#utility.yul\":2337:2343   */\n      dup3\n        /* \"#utility.yul\":2332:2335   */\n      dup3\n        /* \"#utility.yul\":2325:2344   */\n      mstore\n        /* \"#utility.yul\":2377:2381   */\n      0x20\n        /* \"#utility.yul\":2372:2375   */\n      dup3\n        /* \"#utility.yul\":2368:2382   */\n      add\n        /* \"#utility.yul\":2353:2382   */\n      swap1\n      pop\n        /* \"#utility.yul\":2219:2388   */\n      swap3\n      swap2\n      pop\n      pop\n      jump\t// out\n        /* \"#utility.yul\":2394:2557   */\n    tag_50:\n        /* \"#utility.yul\":2534:2549   */\n      0x45786365656473206c696d697400000000000000000000000000000000000000\n        /* \"#utility.yul\":2530:2531   */\n      0x00\n        /* \"#utility.yul\":2522:2528   */\n      dup3\n        /* \"#utility.yul\":2518:2532   */\n      add\n        /* \"#utility.yul\":2511:2550   */\n      mstore\n        /* \"#utility.yul\":2394:2557   */\n      pop\n      jump\t// out\n        /* \"#utility.yul\":2563:2929   */\n    tag_51:\n        /* \"#utility.yul\":2705:2708   */\n      0x00\n        /* \"#utility.yul\":2726:2793   */\n      tag_88\n        /* \"#utility.yul\":2790:2792   */\n      0x0d\n        /* \"#utility.yul\":2785:2788   */\n      dup4\n        /* \"#utility.yul\":2726:2793   */\n      tag_49\n      jump\t// in\n    tag_88:\n        /* \"#utility.yul\":2719:2793   */\n      swap2\n      pop\n        /* \"#utility.yul\":2802:2895   */\n      tag_89\n        /* \"#utility.yul\":2891:2894   */\n      dup3\n        /* \"#utility.yul\":2802:2895   */\n      tag_50\n      jump\t// in\n    tag_89:\n        /* \"#utility.yul\":2920:2922   */\n      0x20\n        /* \"#utility.yul\":2915:2918   */\n      dup3\n        /* \"#utility.yul\":2911:2923   */\n      add\n        /* \"#utility.yul\":2904:2923   */\n      swap1\n      pop\n        /* \"#utility.yul\":2563:2929   */\n      swap2\n      swap1\n      pop\n      jump\t// out\n        /* \"#utility.yul\":2935:3354   */\n    tag_27:\n        /* \"#utility.yul\":3101:3105   */\n      0x00\n        /* \"#utility.yul\":3139:3141   */\n      0x20\n        /* \"#utility.yul\":3128:3137   */\n      dup3\n        /* \"#utility.yul\":3124:3142   */\n      add\n        /* \"#utility.yul\":3116:3142   */\n      swap1\n      pop\n        /* \"#utility.yul\":3188:3197   */\n      dup2\n        /* \"#utility.yul\":3182:3186   */\n      dup2\n        /* \"#utility.yul\":3178:3198   */\n      sub\n        /* \"#utility.yul\":3174:3175   */\n      0x00\n        /* \"#utility.yul\":3163:3172   */\n      dup4\n        /* \"#utility.yul\":3159:3176   */\n      add\n        /* \"#utility.yul\":3152:3199   */\n      mstore\n        /* \"#utility.yul\":3216:3347   */\n      tag_91\n        /* \"#utility.yul\":3342:3346   */\n      dup2\n        /* \"#utility.yul\":3216:3347   */\n      tag_51\n      jump\t// in\n    tag_91:\n        /* \"#utility.yul\":3208:3347   */\n      swap1\n      pop\n        /* \"#utility.yul\":2935:3354   */\n      swap2\n      swap1\n      pop\n      jump\t// out\n        /* \"#utility.yul\":3360:3527   */\n    tag_52:\n        /* \"#utility.yul\":3500:3519   */\n      0x4e6f7420656e6f75676820626c616e6365000000000000000000000000000000\n        /* \"#utility.yul\":3496:3497   */\n      0x00\n        /* \"#utility.yul\":3488:3494   */\n      dup3\n        /* \"#utility.yul\":3484:3498   */\n      add\n        /* \"#utility.yul\":3477:3520   */\n      mstore\n        /* \"#utility.yul\":3360:3527   */\n      pop\n      jump\t// out\n        /* \"#utility.yul\":3533:3899   */\n    tag_53:\n        /* \"#utility.yul\":3675:3678   */\n      0x00\n        /* \"#utility.yul\":3696:3763   */\n      tag_94\n        /* \"#utility.yul\":3760:3762   */\n      0x11\n        /* \"#utility.yul\":3755:3758   */\n      dup4\n        /* \"#utility.yul\":3696:3763   */\n      tag_49\n      jump\t// in\n    tag_94:\n        /* \"#utility.yul\":3689:3763   */\n      swap2\n      pop\n        /* \"#utility.yul\":3772:3865   */\n      tag_95\n        /* \"#utility.yul\":3861:3864   */\n      dup3\n        /* \"#utility.yul\":3772:3865   */\n      tag_52\n      jump\t// in\n    tag_95:\n        /* \"#utility.yul\":3890:3892   */\n      0x20\n        /* \"#utility.yul\":3885:3888   */\n      dup3\n        /* \"#utility.yul\":3881:3893   */\n      add\n        /* \"#utility.yul\":3874:3893   */\n      swap1\n      pop\n        /* \"#utility.yul\":3533:3899   */\n      swap2\n      swap1\n      pop\n      jump\t// out\n        /* \"#utility.yul\":3905:4324   */\n    tag_30:\n        /* \"#utility.yul\":4071:4075   */\n      0x00\n        /* \"#utility.yul\":4109:4111   */\n      0x20\n        /* \"#utility.yul\":4098:4107   */\n      dup3\n        /* \"#utility.yul\":4094:4112   */\n      add\n        /* \"#utility.yul\":4086:4112   */\n      swap1\n      pop\n        /* \"#utility.yul\":4158:4167   */\n      dup2\n        /* \"#utility.yul\":4152:4156   */\n      dup2\n        /* \"#utility.yul\":4148:4168   */\n      sub\n        /* \"#utility.yul\":4144:4145   */\n      0x00\n        /* \"#utility.yul\":4133:4142   */\n      dup4\n        /* \"#utility.yul\":4129:4146   */\n      add\n        /* \"#utility.yul\":4122:4169   */\n      mstore\n        /* \"#utility.yul\":4186:4317   */\n      tag_97\n        /* \"#utility.yul\":4312:4316   */\n      dup2\n        /* \"#utility.yul\":4186:4317   */\n      tag_53\n      jump\t// in\n    tag_97:\n        /* \"#utility.yul\":4178:4317   */\n      swap1\n      pop\n        /* \"#utility.yul\":3905:4324   */\n      swap2\n      swap1\n      pop\n      jump\t// out\n        /* \"#utility.yul\":4330:4510   */\n    tag_54:\n        /* \"#utility.yul\":4378:4455   */\n      0x4e487b7100000000000000000000000000000000000000000000000000000000\n        /* \"#utility.yul\":4375:4376   */\n      0x00\n        /* \"#utility.yul\":4368:4456   */\n      mstore\n        /* \"#utility.yul\":4475:4479   */\n      0x11\n        /* \"#utility.yul\":4472:4473   */\n      0x04\n        /* \"#utility.yul\":4465:4480   */\n      mstore\n        /* \"#utility.yul\":4499:4503   */\n      0x24\n        /* \"#utility.yul\":4496:4497   */\n      0x00\n        /* \"#utility.yul\":4489:4504   */\n      revert\n        /* \"#utility.yul\":4516:4710   */\n    tag_32:\n        /* \"#utility.yul\":4556:4560   */\n      0x00\n        /* \"#utility.yul\":4576:4596   */\n      tag_100\n        /* \"#utility.yul\":4594:4595   */\n      dup3\n        /* \"#utility.yul\":4576:4596   */\n      tag_45\n      jump\t// in\n    tag_100:\n        /* \"#utility.yul\":4571:4596   */\n      swap2\n      pop\n        /* \"#utility.yul\":4610:4630   */\n      tag_101\n        /* \"#utility.yul\":4628:4629   */\n      dup4\n        /* \"#utility.yul\":4610:4630   */\n      tag_45\n      jump\t// in\n    tag_101:\n        /* \"#utility.yul\":4605:4630   */\n      swap3\n      pop\n        /* \"#utility.yul\":4654:4655   */\n      dup3\n        /* \"#utility.yul\":4651:4652   */\n      dup3\n        /* \"#utility.yul\":4647:4656   */\n      sub\n        /* \"#utility.yul\":4639:4656   */\n      swap1\n      pop\n        /* \"#utility.yul\":4678:4679   */\n      dup2\n        /* \"#utility.yul\":4672:4676   */\n      dup2\n        /* \"#utility.yul\":4669:4680   */\n      gt\n        /* \"#utility.yul\":4666:4703   */\n      iszero\n      tag_102\n      jumpi\n        /* \"#utility.yul\":4683:4701   */\n      tag_103\n      tag_54\n      jump\t// in\n    tag_103:\n        /* \"#utility.yul\":4666:4703   */\n    tag_102:\n        /* \"#utility.yul\":4516:4710   */\n      swap3\n      swap2\n      pop\n      pop\n      jump\t// out\n        /* \"#utility.yul\":4716:4907   */\n    tag_37:\n        /* \"#utility.yul\":4756:4759   */\n      0x00\n        /* \"#utility.yul\":4775:4795   */\n      tag_105\n        /* \"#utility.yul\":4793:4794   */\n      dup3\n        /* \"#utility.yul\":4775:4795   */\n      tag_45\n      jump\t// in\n    tag_105:\n        /* \"#utility.yul\":4770:4795   */\n      swap2\n      pop\n        /* \"#utility.yul\":4809:4829   */\n      tag_106\n        /* \"#utility.yul\":4827:4828   */\n      dup4\n        /* \"#utility.yul\":4809:4829   */\n      tag_45\n      jump\t// in\n    tag_106:\n        /* \"#utility.yul\":4804:4829   */\n      swap3\n      pop\n        /* \"#utility.yul\":4852:4853   */\n      dup3\n        /* \"#utility.yul\":4849:4850   */\n      dup3\n        /* \"#utility.yul\":4845:4854   */\n      add\n        /* \"#utility.yul\":4838:4854   */\n      swap1\n      pop\n        /* \"#utility.yul\":4873:4876   */\n      dup1\n        /* \"#utility.yul\":4870:4871   */\n      dup3\n        /* \"#utility.yul\":4867:4877   */\n      gt\n        /* \"#utility.yul\":4864:4900   */\n      iszero\n      tag_107\n      jumpi\n        /* \"#utility.yul\":4880:4898   */\n      tag_108\n      tag_54\n      jump\t// in\n    tag_108:\n        /* \"#utility.yul\":4864:4900   */\n    tag_107:\n        /* \"#utility.yul\":4716:4907   */\n      swap3\n      swap2\n      pop\n      pop\n      jump\t// out\n\n    auxdata: 0xa26469706673582212208191502e1452d7fd62a46d7bfd441418442441bb19f4681c5b00cdeb3f88abe564736f6c634300081e0033\n}\n",
				"bytecode": {
					"linkReferences": {},
					"object": "608060405260646001553480156013575f5ffd5b5061055d806100215f395ff3fe60806040526004361061003e575f3560e01c806327e235e3146100425780632e1a7d4d1461007e578063ac7a1b5b146100a6578063d0e30db0146100d0575b5f5ffd5b34801561004d575f5ffd5b5061006860048036038101906100639190610303565b6100da565b6040516100759190610346565b60405180910390f35b348015610089575f5ffd5b506100a4600480360381019061009f9190610389565b6100ee565b005b3480156100b1575f5ffd5b506100ba61024b565b6040516100c79190610346565b60405180910390f35b6100d8610251565b005b5f602052805f5260405f205f915090505481565b600154811115610133576040517f08c379a000000000000000000000000000000000000000000000000000000000815260040161012a9061040e565b60405180910390fd5b805f5f3373ffffffffffffffffffffffffffffffffffffffff1673ffffffffffffffffffffffffffffffffffffffff1681526020019081526020015f205410156101b2576040517f08c379a00000000000000000000000000000000000000000000000000000000081526004016101a990610476565b60405180910390fd5b805f5f3373ffffffffffffffffffffffffffffffffffffffff1673ffffffffffffffffffffffffffffffffffffffff1681526020019081526020015f205f8282546101fd91906104c1565b925050819055503373ffffffffffffffffffffffffffffffffffffffff166108fc8290811502906040515f60405180830381858888f19350505050158015610247573d5f5f3e3d5ffd5b5050565b60015481565b345f5f3373ffffffffffffffffffffffffffffffffffffffff1673ffffffffffffffffffffffffffffffffffffffff1681526020019081526020015f205f82825461029c91906104f4565b92505081905550565b5f5ffd5b5f73ffffffffffffffffffffffffffffffffffffffff82169050919050565b5f6102d2826102a9565b9050919050565b6102e2816102c8565b81146102ec575f5ffd5b50565b5f813590506102fd816102d9565b92915050565b5f60208284031215610318576103176102a5565b5b5f610325848285016102ef565b91505092915050565b5f819050919050565b6103408161032e565b82525050565b5f6020820190506103595f830184610337565b92915050565b6103688161032e565b8114610372575f5ffd5b50565b5f813590506103838161035f565b92915050565b5f6020828403121561039e5761039d6102a5565b5b5f6103ab84828501610375565b91505092915050565b5f82825260208201905092915050565b7f45786365656473206c696d6974000000000000000000000000000000000000005f82015250565b5f6103f8600d836103b4565b9150610403826103c4565b602082019050919050565b5f6020820190508181035f830152610425816103ec565b9050919050565b7f4e6f7420656e6f75676820626c616e63650000000000000000000000000000005f82015250565b5f6104606011836103b4565b915061046b8261042c565b602082019050919050565b5f6020820190508181035f83015261048d81610454565b9050919050565b7f4e487b71000000000000000000000000000000000000000000000000000000005f52601160045260245ffd5b5f6104cb8261032e565b91506104d68361032e565b92508282039050818111156104ee576104ed610494565b5b92915050565b5f6104fe8261032e565b91506105098361032e565b925082820190508082111561052157610520610494565b5b9291505056fea26469706673582212208191502e1452d7fd62a46d7bfd441418442441bb19f4681c5b00cdeb3f88abe564736f6c634300081e0033",
					"opcodes": "PUSH1 0x80 PUSH1 0x40 MSTORE PUSH1 0x64 PUSH1 0x1 SSTORE CALLVALUE DUP1 ISZERO PUSH1 0x13 JUMPI PUSH0 PUSH0 REVERT JUMPDEST POP PUSH2 0x55D DUP1 PUSH2 0x21 PUSH0 CODECOPY PUSH0 RETURN INVALID PUSH1 0x80 PUSH1 0x40 MSTORE PUSH1 0x4 CALLDATASIZE LT PUSH2 0x3E JUMPI PUSH0 CALLDATALOAD PUSH1 0xE0 SHR DUP1 PUSH4 0x27E235E3 EQ PUSH2 0x42 JUMPI DUP1 PUSH4 0x2E1A7D4D EQ PUSH2 0x7E JUMPI DUP1 PUSH4 0xAC7A1B5B EQ PUSH2 0xA6 JUMPI DUP1 PUSH4 0xD0E30DB0 EQ PUSH2 0xD0 JUMPI JUMPDEST PUSH0 PUSH0 REVERT JUMPDEST CALLVALUE DUP1 ISZERO PUSH2 0x4D JUMPI PUSH0 PUSH0 REVERT JUMPDEST POP PUSH2 0x68 PUSH1 0x4 DUP1 CALLDATASIZE SUB DUP2 ADD SWAP1 PUSH2 0x63 SWAP2 SWAP1 PUSH2 0x303 JUMP JUMPDEST PUSH2 0xDA JUMP JUMPDEST PUSH1 0x40 MLOAD PUSH2 0x75 SWAP2 SWAP1 PUSH2 0x346 JUMP JUMPDEST PUSH1 0x40 MLOAD DUP1 SWAP2 SUB SWAP1 RETURN JUMPDEST CALLVALUE DUP1 ISZERO PUSH2 0x89 JUMPI PUSH0 PUSH0 REVERT JUMPDEST POP PUSH2 0xA4 PUSH1 0x4 DUP1 CALLDATASIZE SUB DUP2 ADD SWAP1 PUSH2 0x9F SWAP2 SWAP1 PUSH2 0x389 JUMP JUMPDEST PUSH2 0xEE JUMP JUMPDEST STOP JUMPDEST CALLVALUE DUP1 ISZERO PUSH2 0xB1 JUMPI PUSH0 PUSH0 REVERT JUMPDEST POP PUSH2 0xBA PUSH2 0x24B JUMP JUMPDEST PUSH1 0x40 MLOAD PUSH2 0xC7 SWAP2 SWAP1 PUSH2 0x346 JUMP JUMPDEST PUSH1 0x40 MLOAD DUP1 SWAP2 SUB SWAP1 RETURN JUMPDEST PUSH2 0xD8 PUSH2 0x251 JUMP JUMPDEST STOP JUMPDEST PUSH0 PUSH1 0x20 MSTORE DUP1 PUSH0 MSTORE PUSH1 0x40 PUSH0 KECCAK256 PUSH0 SWAP2 POP SWAP1 POP SLOAD DUP2 JUMP JUMPDEST PUSH1 0x1 SLOAD DUP2 GT ISZERO PUSH2 0x133 JUMPI PUSH1 0x40 MLOAD PUSH32 0x8C379A000000000000000000000000000000000000000000000000000000000 DUP2 MSTORE PUSH1 0x4 ADD PUSH2 0x12A SWAP1 PUSH2 0x40E JUMP JUMPDEST PUSH1 0x40 MLOAD DUP1 SWAP2 SUB SWAP1 REVERT JUMPDEST DUP1 PUSH0 PUSH0 CALLER PUSH20 0xFFFFFFFFFFFFFFFFFFFFFFFFFFFFFFFFFFFFFFFF AND PUSH20 0xFFFFFFFFFFFFFFFFFFFFFFFFFFFFFFFFFFFFFFFF AND DUP2 MSTORE PUSH1 0x20 ADD SWAP1 DUP2 MSTORE PUSH1 0x20 ADD PUSH0 KECCAK256 SLOAD LT ISZERO PUSH2 0x1B2 JUMPI PUSH1 0x40 MLOAD PUSH32 0x8C379A000000000000000000000000000000000000000000000000000000000 DUP2 MSTORE PUSH1 0x4 ADD PUSH2 0x1A9 SWAP1 PUSH2 0x476 JUMP JUMPDEST PUSH1 0x40 MLOAD DUP1 SWAP2 SUB SWAP1 REVERT JUMPDEST DUP1 PUSH0 PUSH0 CALLER PUSH20 0xFFFFFFFFFFFFFFFFFFFFFFFFFFFFFFFFFFFFFFFF AND PUSH20 0xFFFFFFFFFFFFFFFFFFFFFFFFFFFFFFFFFFFFFFFF AND DUP2 MSTORE PUSH1 0x20 ADD SWAP1 DUP2 MSTORE PUSH1 0x20 ADD PUSH0 KECCAK256 PUSH0 DUP3 DUP3 SLOAD PUSH2 0x1FD SWAP2 SWAP1 PUSH2 0x4C1 JUMP JUMPDEST SWAP3 POP POP DUP2 SWAP1 SSTORE POP CALLER PUSH20 0xFFFFFFFFFFFFFFFFFFFFFFFFFFFFFFFFFFFFFFFF AND PUSH2 0x8FC DUP3 SWAP1 DUP2 ISZERO MUL SWAP1 PUSH1 0x40 MLOAD PUSH0 PUSH1 0x40 MLOAD DUP1 DUP4 SUB DUP2 DUP6 DUP9 DUP9 CALL SWAP4 POP POP POP POP ISZERO DUP1 ISZERO PUSH2 0x247 JUMPI RETURNDATASIZE PUSH0 PUSH0 RETURNDATACOPY RETURNDATASIZE PUSH0 REVERT JUMPDEST POP POP JUMP JUMPDEST PUSH1 0x1 SLOAD DUP2 JUMP JUMPDEST CALLVALUE PUSH0 PUSH0 CALLER PUSH20 0xFFFFFFFFFFFFFFFFFFFFFFFFFFFFFFFFFFFFFFFF AND PUSH20 0xFFFFFFFFFFFFFFFFFFFFFFFFFFFFFFFFFFFFFFFF AND DUP2 MSTORE PUSH1 0x20 ADD SWAP1 DUP2 MSTORE PUSH1 0x20 ADD PUSH0 KECCAK256 PUSH0 DUP3 DUP3 SLOAD PUSH2 0x29C SWAP2 SWAP1 PUSH2 0x4F4 JUMP JUMPDEST SWAP3 POP POP DUP2 SWAP1 SSTORE POP JUMP JUMPDEST PUSH0 PUSH0 REVERT JUMPDEST PUSH0 PUSH20 0xFFFFFFFFFFFFFFFFFFFFFFFFFFFFFFFFFFFFFFFF DUP3 AND SWAP1 POP SWAP2 SWAP1 POP JUMP JUMPDEST PUSH0 PUSH2 0x2D2 DUP3 PUSH2 0x2A9 JUMP JUMPDEST SWAP1 POP SWAP2 SWAP1 POP JUMP JUMPDEST PUSH2 0x2E2 DUP2 PUSH2 0x2C8 JUMP JUMPDEST DUP2 EQ PUSH2 0x2EC JUMPI PUSH0 PUSH0 REVERT JUMPDEST POP JUMP JUMPDEST PUSH0 DUP2 CALLDATALOAD SWAP1 POP PUSH2 0x2FD DUP2 PUSH2 0x2D9 JUMP JUMPDEST SWAP3 SWAP2 POP POP JUMP JUMPDEST PUSH0 PUSH1 0x20 DUP3 DUP5 SUB SLT ISZERO PUSH2 0x318 JUMPI PUSH2 0x317 PUSH2 0x2A5 JUMP JUMPDEST JUMPDEST PUSH0 PUSH2 0x325 DUP5 DUP3 DUP6 ADD PUSH2 0x2EF JUMP JUMPDEST SWAP2 POP POP SWAP3 SWAP2 POP POP JUMP JUMPDEST PUSH0 DUP2 SWAP1 POP SWAP2 SWAP1 POP JUMP JUMPDEST PUSH2 0x340 DUP2 PUSH2 0x32E JUMP JUMPDEST DUP3 MSTORE POP POP JUMP JUMPDEST PUSH0 PUSH1 0x20 DUP3 ADD SWAP1 POP PUSH2 0x359 PUSH0 DUP4 ADD DUP5 PUSH2 0x337 JUMP JUMPDEST SWAP3 SWAP2 POP POP JUMP JUMPDEST PUSH2 0x368 DUP2 PUSH2 0x32E JUMP JUMPDEST DUP2 EQ PUSH2 0x372 JUMPI PUSH0 PUSH0 REVERT JUMPDEST POP JUMP JUMPDEST PUSH0 DUP2 CALLDATALOAD SWAP1 POP PUSH2 0x383 DUP2 PUSH2 0x35F JUMP JUMPDEST SWAP3 SWAP2 POP POP JUMP JUMPDEST PUSH0 PUSH1 0x20 DUP3 DUP5 SUB SLT ISZERO PUSH2 0x39E JUMPI PUSH2 0x39D PUSH2 0x2A5 JUMP JUMPDEST JUMPDEST PUSH0 PUSH2 0x3AB DUP5 DUP3 DUP6 ADD PUSH2 0x375 JUMP JUMPDEST SWAP2 POP POP SWAP3 SWAP2 POP POP JUMP JUMPDEST PUSH0 DUP3 DUP3 MSTORE PUSH1 0x20 DUP3 ADD SWAP1 POP SWAP3 SWAP2 POP POP JUMP JUMPDEST PUSH32 0x45786365656473206C696D697400000000000000000000000000000000000000 PUSH0 DUP3 ADD MSTORE POP JUMP JUMPDEST PUSH0 PUSH2 0x3F8 PUSH1 0xD DUP4 PUSH2 0x3B4 JUMP JUMPDEST SWAP2 POP PUSH2 0x403 DUP3 PUSH2 0x3C4 JUMP JUMPDEST PUSH1 0x20 DUP3 ADD SWAP1 POP SWAP2 SWAP1 POP JUMP JUMPDEST PUSH0 PUSH1 0x20 DUP3 ADD SWAP1 POP DUP2 DUP2 SUB PUSH0 DUP4 ADD MSTORE PUSH2 0x425 DUP2 PUSH2 0x3EC JUMP JUMPDEST SWAP1 POP SWAP2 SWAP1 POP JUMP JUMPDEST PUSH32 0x4E6F7420656E6F75676820626C616E6365000000000000000000000000000000 PUSH0 DUP3 ADD MSTORE POP JUMP JUMPDEST PUSH0 PUSH2 0x460 PUSH1 0x11 DUP4 PUSH2 0x3B4 JUMP JUMPDEST SWAP2 POP PUSH2 0x46B DUP3 PUSH2 0x42C JUMP JUMPDEST PUSH1 0x20 DUP3 ADD SWAP1 POP SWAP2 SWAP1 POP JUMP JUMPDEST PUSH0 PUSH1 0x20 DUP3 ADD SWAP1 POP DUP2 DUP2 SUB PUSH0 DUP4 ADD MSTORE PUSH2 0x48D DUP2 PUSH2 0x454 JUMP JUMPDEST SWAP1 POP SWAP2 SWAP1 POP JUMP JUMPDEST PUSH32 0x4E487B7100000000000000000000000000000000000000000000000000000000 PUSH0 MSTORE PUSH1 0x11 PUSH1 0x4 MSTORE PUSH1 0x24 PUSH0 REVERT JUMPDEST PUSH0 PUSH2 0x4CB DUP3 PUSH2 0x32E JUMP JUMPDEST SWAP2 POP PUSH2 0x4D6 DUP4 PUSH2 0x32E JUMP JUMPDEST SWAP3 POP DUP3 DUP3 SUB SWAP1 POP DUP2 DUP2 GT ISZERO PUSH2 0x4EE JUMPI PUSH2 0x4ED PUSH2 0x494 JUMP JUMPDEST JUMPDEST SWAP3 SWAP2 POP POP JUMP JUMPDEST PUSH0 PUSH2 0x4FE DUP3 PUSH2 0x32E JUMP JUMPDEST SWAP2 POP PUSH2 0x509 DUP4 PUSH2 0x32E JUMP JUMPDEST SWAP3 POP DUP3 DUP3 ADD SWAP1 POP DUP1 DUP3 GT ISZERO PUSH2 0x521 JUMPI PUSH2 0x520 PUSH2 0x494 JUMP JUMPDEST JUMPDEST SWAP3 SWAP2 POP POP JUMP INVALID LOG2 PUSH5 0x6970667358 0x22 SLT KECCAK256 DUP2 SWAP2 POP 0x2E EQ MSTORE 0xD7 REVERT PUSH3 0xA46D7B REVERT PREVRANDAO EQ XOR PREVRANDAO 0x24 COINBASE 0xBB NOT DELEGATECALL PUSH9 0x1C5B00CDEB3F88ABE5 PUSH5 0x736F6C6343 STOP ADDMOD 0x1E STOP CALLER "
				},
				"gasEstimates": {
					"creation": {
						"codeDepositCost": "274600",
						"executionCost": "22416",
						"totalCost": "297016"
					},
					"external": {
						"balances(address)": "2779",
						"deposit()": "infinite",
						"maxWithdraw()": "2447",
						"withdraw(uint256)": "infinite"
					}
				},
				"methodIdentifiers": {
					"balances(address)": "27e235e3",
					"deposit()": "d0e30db0",
					"maxWithdraw()": "ac7a1b5b",
					"withdraw(uint256)": "2e1a7d4d"
				}
			},
			"storageLayout": {
				"storage": [
					{
						"astId": 5,
						"contract": "contracts/xzq_8_bank2.sol:Bank",
						"label": "balances",
						"offset": 0,
						"slot": "0",
						"type": "t_mapping(t_address,t_uint256)"
					},
					{
						"astId": 8,
						"contract": "contracts/xzq_8_bank2.sol:Bank",
						"label": "maxWithdraw",
						"offset": 0,
						"slot": "1",
						"type": "t_uint256"
					}
				],
				"types": {
					"t_address": {
						"encoding": "inplace",
						"label": "address",
						"numberOfBytes": "20"
					},
					"t_mapping(t_address,t_uint256)": {
						"encoding": "mapping",
						"key": "t_address",
						"label": "mapping(address => uint256)",
						"numberOfBytes": "32",
						"value": "t_uint256"
					},
					"t_uint256": {
						"encoding": "inplace",
						"label": "uint256",
						"numberOfBytes": "32"
					}
				}
			},
			"userdoc": {
				"kind": "user",
				"methods": {},
				"version": 1
			}
		}
	}
}